S01500004475616C43756265546F5553422E737265635D
S11300000C94FC000C9424010C9424010C94240101
S11300100C9424010C9424010C9424010C942401C8
S11300200C9424010C9424010C94120E0C94F20CE4
S11300300C9424010C9424010C9424010C942401A8
S11300400C9424010C9424010C9424010C94240198
S11300500C9424010C9424010C9424010C94240188
S11300600C9424010C9424010C9424010C94240178
S11300700C9424010C9424010C9424010C94240168
S11300800C9424010C9424010C9424010C94240158
S11300900C9424010C9424010C9424010C94240148
S11300A00C9424010C9424010C94240109040000F0
S11300B00103000000092101010001227600070567
S11300C0810340000105010905A1018501A1000585
S11300D009190129201500250195207501810205C2
S11300E00109300931093309340935093615002667
S11300F0FF03750A95068102950175048103C0C04A
S113010005010905A1018502A1000509190129209C
S11301101500250195207501810205010930093179
S11301200933093409350936150026FF03750A9584
S1130130068102950175048103C0C0090400000111
S113014003000000092101010001223B0007058191
S11301500340000105010905A1018501A10005096C
S11301601901292015002501952075018102050139
S1130170093009310933093409350936150026FFD8
S113018003750A95068102950175048103C0C000B8
S1130190C112010002000000404F1B341200010193
S11301A002000112010002000000404F1B34120043
S11301B00101020001180353007000610072006B1A
S11301C000460075006E0020002000200022034E2F
S11301D00069006E00740065006E0064006F00200A
S11301E00054006F0020005500530042002000041A
S11301F003090400A80A5F0B11241FBECFEFDAE045
S1130200DEBFCDBF11E0A0E0B1E0E4EBFDE102C050
S113021005900D92AC31B107D9F722E0ACE1B1E021
S113022001C01D92A838B207E1F711E0C8EFD1E090
S113023004C02297FE010E94C70EC43FD107C9F72C
S11302400E944E0A0C94D80E0C940000009741F0C2
S113025028E0E2E3F1E0DC0101900D922A95E1F758
S113026088E0E2E3F1E0AAE2B1E001900D928A9520
S1130270E1F788E090E0089548E050E06AE271E038
S113028082E391E00E94CB0E0895EF92FF920F93C8
S11302901F93CF93DF93CDB7DEB766970FB6F8946D
S11302A0DEBF0FBECDBFF82E1E8A61E070E0CE0126
S11302B04696FF2019F00E94A10402C00E94C803C0
S11302C0883109F032C280E48D8783E08E871F86EF
S11302D08E01035F1F4F63E070E0C801FF2019F037
S11302E00E94A10402C00E94C803803409F01DC208
S11302F088E0F80111928A95E9F76D8580E090E035
S113030020E830E0FC01EC56FE4F4081442341F0EC
S1130310A901082E02C0559547950A94E2F701C039
S113032040E0462B01968830910511F0642FEACF06
S11303304D876E8580E090E020E830E0FC01E456D3
S1130340FE4F4081442341F0A901082E02C0559577
S113035047950A94E2F701C040E0462B01968830A5
S1130360910511F0642FEACF40954E876F8520E008
S113037030E080E890E0F901EC55FE4F40814423E1
S113038041F0AC01022E02C0559547950A94E2F75C
S113039001C040E0462B2F5F3F4F2830310511F05C
S11303A0642FE9CF4F87688920E030E080E890E04F
S11303B0F901E455FE4F4081411108C0AC01022E01
S11303C002C0559547950A94E2F701C040E0462BD8
S11303D02F5F3F4F2830310511F0642FE9CF488B50
S11303E0698920E030E080E890E0F901EC54FE4FA8
S11303F04081442341F0AC01022E02C0559547953B
S11304000A94E2F701C040E0462B2F5F3F4F2830AB
S1130410310511F0642FE9CF4095498B6A8920E0BA
S113042030E080E890E0F901E454FE4F4081442339
S113043041F0AC01022E02C0559547950A94E2F7AB
S113044001C040E0462B2F5F3F4F2830310511F0AB
S1130450642FE9CF40954A8B4B8920E030E087E058
S113046090E061E0FC01E21BF30BEC57FE4F50817E
S1130470552339F0562F022E01C0550F0A94EAF77E
S113048001C050E0452B2F5F3F4F2530310551F718
S113049080918D01882311F090E201C090E0492BF6
S11304A080918E01882311F090E401C090E0942B98
S11304B080918F01882311F080E801C080E0892BAE
S11304C08B8B8C8920E030E041E0F901E057FE4F4E
S11304D09081992339F0942F022E01C0990F0A9428
S11304E0EAF701C090E0892B2F5F3F4F243031059C
S11304F061F78C8B81E48D8B8E010F5F1F4F8CE035
S1130500F80111928A95E9F761E070E0CE01459611
S1130510FF2019F00E94A10402C00E94C803803584
S113052009F0D9C029813A8180E090E060E870E068
S1130530FC01EC56FE4F4081442341F0AB01082EF0
S113054002C0559547950A94E2F702C040E050E096
S1130550242B352B01968830910551F73A83298352
S11305602B813C8180E090E060E870E0FC01E4567F
S1130570FE4F4081442341F0AB01082E02C0559543
S113058047950A94E2F702C040E050E0242B352B53
S113059001968830910551F720953C832B832D815A
S11305A03E8180E090E060E870E0FC01EC55FE4F95
S11305B04081442341F0AB01082E02C05595479574
S11305C00A94E2F702C040E050E0242B352B019658
S11305D08830910551F73E832D832F81388580E043
S11305E090E060E870E0FC01E455FE4F4081411169
S11305F008C0AB01082E02C0559547950A94E2F74E
S113060002C040E050E0242B352B01968830910540
S113061051F738872F8349855A8580E090E060E858
S113062070E0FC01EC54FE4F2081222341F09B0139
S1130630082E02C0359527950A94E2F702C020E0FF
S113064030E0422B532B01968830910551F74095A9
S11306505A8749872B853C8580E090E0E0E8F0E00C
S1130660DC01A454BE4F6C91662341F0BF01082EF7
S113067002C0759567950A94E2F702C060E070E0E5
S1130680262B372B01968830910551F7C9018095A7
S11306909C878B87F801AEE1B1E09E01275F3F4F55
S11306A00FE710E0619171917801E61AF70AED9273
S11306B0FD92E217F307B1F725EF30E0B901641BAF
S11306C0750B7093270160932601281B390B309317
S11306D02901209328018EE191E0DE011D96AD01F0
S11306E0FC01308102962C91230F2D93F1E08A3284
S11306F09F07B1F786E0FA01A2E3B1E001900D9201
S11307008A95E1F780911C0190911D01892B29F0B4
S11307108FE780933601809337018B89809338016A
S11307208C898093390180E001C081E066960FB620
S1130730F894DEBF0FBECDBFDF91CF911F910F9113
S1130740FF90EF9008950E94450191E0811190E09F
S1130750892F08950E944501811113C080918D0154
S1130760882359F080918E01882339F081E090E04C
S113077090931D0180931C01089510921D01109205
S11307801C01089580E091E008953E9846980895EC
S11307900F931F93CF93DF93F894662309F454C007
S11307A07727A0E0B0E040E050E09D0146175707EE
S11307B0ACF4189610E8FC01E40FF51F0081012346
S11307C0E901CC57DE4F08832F5F3F4F16952A1758
S11307D03B07A1F74F5F5F4FD901E7CFE4E8F1E0B2
S11307E0CF93DF93EF93FF930191002311F069F40A
S11307F01BC000003E9A1DE014D03E98000000008B
S113080000000000119781F70FC03E9A12E000002B
S113081008D03E9819E005D000000000119721F798
S113082003C01A95F1F7089500000000FF91EF91BD
S1130830DF91CF913E9A12E00000F3DF3E980FEF74
S11308400A9511F0369BFCCFE4E8F1E0EF93FF93B7
S1130850442700270395A1F03699FCCF08C00BE488
S1130860039572F03699FCCF439551F001930BE454
S1130870039532F0369BFCCF439511F00193EFCFF3
S1130880FF91EF91842F90E00097C9F040FF17C0CB
S1130890DF019D017081618151E0761708F050E01D
S11308A05D9332965A2F521B5417A0F378942AE181
S11308B02A95F1F700C001979595879502C080E0CD
S11308C090E0DF91CF911F910F910895CF93DF9323
S11308D01F92CDB7DEB7198261E070E0CE010196B8
S11308E00E94C8030097F1F04897F9F480918801B9
S11308F0811188E0909189019111846090918A011D
S11309009111826090918B01911181608A3038F449
S1130910883070F4853049F481E090E00BC08B306E
S113092039F003C080E090E005C084E090E002C0AC
S113093082E090E00F90DF91CF91089587988F988F
S113094008950F931F93CF93DF93F894662309F4CC
S113095054C07727A0E0B0E040E050E09D01461786
S11309605707ACF4189610E8FC01E40FF51F00815A
S11309700123E901CC57DE4F08832F5F3F4F1695C3
S11309802A173B07A1F74F5F5F4FD901E7CFE4E890
S1130990F1E0CF93DF93EF93FF930191002311F0E4
S11309A069F41BC00000879A1DE014D087980000EA
S11309B0000000000000119781F70FC0879A12E031
S11309C0000008D0879819E005D0000000001197B6
S11309D021F703C01A95F1F7089500000000FF9174
S11309E0EF91DF91CF91879A12E00000F3DF8798AF
S11309F00FEF0A9511F07F9BFCCFE4E8F1E0EF9351
S1130A00FF93442700270395A1F07F99FCCF08C0EA
S1130A100BE4039572F07F99FCCF439551F0019359
S1130A200BE4039532F07F9BFCCF439511F00193C7
S1130A30EFCFFF91EF91842F90E00097C9F040FF32
S1130A4017C0DF019D017081618151E0761708F0C4
S1130A5050E05D9332965A2F521B5417A0F37894AA
S1130A602AE12A95F1F700C001979595879502C070
S1130A7080E090E0DF91CF911F910F910895CF9383
S1130A80DF931F92CDB7DEB7198261E070E0CE012B
S1130A9001960E94A1040097F1F04897F9F480911F
S1130AA08801811188E0909189019111846090916D
S1130AB08A019111826090918B01911181608A3039
S1130AC038F4883070F4853049F481E090E00BC04C
S1130AD08B3039F003C080E090E005C084E090E002
S1130AE002C082E090E00F90DF91CF9108950097CB
S1130AF041F028E0E2E4F1E0DC0101900D922A9556
S1130B00E1F788E0E2E4F1E0AAE3B1E001900D92BC
S1130B108A95E1F788E090E008951F93CF93DF93DF
S1130B20CDB7DEB7A6970FB6F894DEBF0FBECDBF24
S1130B30182F198261E070E0CE010196111103C0F3
S1130B400E94C80302C00E94A104883119F01092C7
S1130B501801CFC080919B01882331F08091180146
S1130B60853011F41092180180919B01811103C00A
S1130B7085E08093180181E0898361E070E0CE0113
S1130B800196111103C00E94C80302C00E94A1046F
S1130B90803209F0AEC019821A821B8270E080E0B4
S1130BA090E031E0FC01EC57FE4F2081222339F024
S1130BB0232F082E01C0220F0A94EAF701C020E077
S1130BC0722B01968430910569F780E090E030E162
S1130BD0FC01E057FE4F2081222339F0232F082EF9
S1130BE001C0220F0A94EAF701C020E0722B01969B
S1130BF08430910569F77B8390918E0181E0911196
S1130C0001C080E090918F01911102C060E001C0A9
S1130C1062E0682B6C83A98180E090E020E830E0FA
S1130C20FC01EC56FE4F4081442341F0A901082EFB
S1130C3002C0559547950A94E2F701C040E0A42B01
S1130C4001968830910561F7A983BA8180E090E02C
S1130C5020E830E0FC01E456FE4F4081442341F09B
S1130C60A901082E02C0559547950A94E2F701C0E0
S1130C7040E0542F5B2B01968830910511F0B52F7D
S1130C80E9CF5A83A158A09342018FE7982F951B6F
S1130C9090934301809344018093450180934601DE
S1130CA080934701709348016093490180918801C2
S1130CB0882319F064606093490180918901882335
S1130CC029F08091490188608093490180918A01CB
S1130CD0882329F0809149018061809349018091A2
S1130CE08B01882341F080914901806280934901FE
S1130CF002C08FEF01C080E0A6960FB6F894DEBF65
S1130D000FBECDBFDF91CF911F9108950C948D0537
S1130D100F931F93CF93DF931F92CDB7DEB7082FA6
S1130D2085E0809318011FE02FEF86E791E02150C2
S1130D3080409040E1F700C00000198261E070E05B
S1130D40CE010196011103C00E94C80302C00E9493
S1130D50A104489719F0115039F701C011E0812F0F
S1130D600F90DF91CF911F910F91089548E050E0CB
S1130D706AE371E082E491E00E94CB0E08958CE076
S1130D8091E008958DE591E00E944B0B8DE591E093
S1130D900E94590B8DE591E00C943F0B17B88FEF2F
S1130DA088B910BA81BB089580916C0190916D014E
S1130DB0892BD9F40E9466048130910529F00297A9
S1130DC0A1F40E94C20302C00E94BF0690936D0169
S1130DD080936C01DC011296ED91FC91139780E0F5
S1130DE0099510924F0110924E0180914A01909101
S1130DF04B01892B11F180916A0190916B01892B30
S1130E00E1F40E943F058130910519F0029721F029
S1130E1008950E94BF0602C00E94C20390936B0112
S1130E2080936A01DC011296ED91FC91139781E0A5
S1130E30099510924D0110924C01089580914E0134
S1130E4090914F014F9724F010926D0110926C0114
S1130E5080914C0190914D014F9724F010926B01B9
S1130E6010926A0108954F925F926F927F928F92CF
S1130E709F92AF92BF92CF92DF92EF92FF920F9325
S1130E801F93CF93DF93CDB7DEB764970FB6F89473
S1130E90DEBF0FBECDBFE0916C01F0916D013097C4
S1130EA009F467C10480F581E02D80E00995882369
S1130EB051F080914E0190914F01019690934F0112
S1130EC080934E0104C010924F0110924E01E091A4
S1130ED06C01F0916D01808191810084F185E02D98
S1130EE061E070E0019709F0FAC0CE01019609951E
S1130EF089818B3130F0843E48F490E0A0E0B0E08A
S1130F0009C08BE190E0A0E0B0E004C083EE90E083
S1130F10A0E0B0E09C01AD012B5131094109510918
S1130F20AFEFB3E00E947F0E28EC30E040E050E0E9
S1130F300E94510E29873A874B875C878A818B31BF
S1130F4030F0843E48F490E0A0E0B0E009C08BE1CA
S1130F5090E0A0E0B0E004C083EE90E0A0E0B0E058
S1130F609C01AD012B51310941095109AFEFB3E0A7
S1130F700E947F0E28EC30E040E050E00E94510EC9
S1130F802D873E874F87588B8B81853230F08A3D81
S1130F9048F490E0A0E0B0E009C085E290E0A0E071
S1130FA0B0E004C089ED90E0A0E0B0E09C01AD01A8
S1130FB02552310941095109AFEFB3E00E947F0E78
S1130FC024EB30E040E050E00E94510E49015A0108
S1130FD08C81853230F08A3D48F490E0A0E0B0E0A6
S1130FE009C085E290E0A0E0B0E004C089ED90E0A3
S1130FF0A0E0B0E09C01AD0125523109410951093D
S1131000AFEFB3E00E947F0E24EB30E040E050E00D
S11310100E94510E29013A018D81863430F0863FB9
S113102048F490E0A0E0B0E009C086E490E0A0E0DD
S1131030B0E004C085EF90E0A0E0B0E09C01AD0119
S11310402654310941095109AFEFB3E00E947F0EE4
S11310502FEA30E040E050E00E94510E298B3A8B99
S11310604B8B5C8B8E81863438F0863F58F4C82EC7
S1131070D12CE12CF12C0BC036E4C32ED12CE12C65
S1131080F12C05C025EFC22ED12CE12CF12C488582
S113109050E060E070E0762F652F542F44278F8155
S11310A0482B8DE591E00E94390BA7019601265447
S11310B0310941095109AFEFB3E00E947F0E2FEAD5
S11310C030E040E050E00E94510E6901E988FA885E
S11310D0820194014D855E8569857A8539C0CE018A
S11310E001960995298130E0AFEFB3E00E94700EBC
S11310F0C12CD12C7601CA94A70196010E94510EED
S113110049015A012A8130E0AFEFB3E00E94700E2A
S1131110A70196010E94510E29013A01488550E029
S113112060E070E0762F652F542F44278F81482B81
S11311308DE591E00E94390BC12C02E0D02EE12C08
S113114082E0F82E00E012E020E032E0A201B401D7
S11311508EE691E00E94BF0A89019A01AB01BC01AD
S11311608DE591E00E942B0B8DE591E00E943F0BF1
S113117002C00E94C206E0916A01F0916B013097AF
S113118009F463C10480F581E02D81E00995882389
S113119051F080914C0190914D01019690934D0135
S11311A080934C0104C010924D0110924C01E091C7
S11311B06A01F0916B01808191810084F185E02DB9
S11311C061E070E0019709F0FAC0CE01019609953B
S11311D089818B3130F0843E48F490E0A0E0B0E0A7
S11311E009C08BE190E0A0E0B0E004C083EE90E0A1
S11311F0A0E0B0E09C01AD012B5131094109510936
S1131200AFEFB3E00E947F0E28EC30E040E050E006
S11312100E94510E29873A874B875C878A818B31DC
S113122030F0843E48F490E0A0E0B0E009C08BE1E7
S113123090E0A0E0B0E004C083EE90E0A0E0B0E075
S11312409C01AD012B51310941095109AFEFB3E0C4
S11312500E947F0E28EC30E040E050E00E94510EE6
S11312602D873E874F87588B8B81853230F08A3D9E
S113127048F490E0A0E0B0E009C085E290E0A0E08E
S1131280B0E004C089ED90E0A0E0B0E09C01AD01C5
S11312902552310941095109AFEFB3E00E947F0E95
S11312A024EB30E040E050E00E94510E49015A0125
S11312B08C81853230F08A3D48F490E0A0E0B0E0C3
S11312C009C085E290E0A0E0B0E004C089ED90E0C0
S11312D0A0E0B0E09C01AD0125523109410951095A
S11312E0AFEFB3E00E947F0E24EB30E040E050E02B
S11312F00E94510E29013A018D81863430F0863FD7
S113130048F490E0A0E0B0E009C086E490E0A0E0FA
S1131310B0E004C085EF90E0A0E0B0E09C01AD0136
S11313202654310941095109AFEFB3E00E947F0E01
S11313302FEA30E040E050E00E94510E298B3A8BB6
S11313404B8B5C8B8E81863438F0863F58F4C82EE4
S1131350D12CE12CF12C0BC0A6E4CA2ED12CE12C0B
S1131360F12C05C0F5EFCF2ED12CE12CF12C4885C2
S113137050E060E070E0762F652F542F44278F8172
S1131380482B80E591E00E94390BA7019601265471
S1131390310941095109AFEFB3E00E947F0E2FEAF2
S11313A030E040E050E00E94510E6901E988FA887B
S11313B0820194014D855E8569857A8539C0CE01A7
S11313C001960995298130E0AFEFB3E00E94700ED9
S11313D0C12CD12C7601CA94A70196010E94510E0A
S11313E049015A012A8130E0AFEFB3E00E94700E48
S11313F0A70196010E94510E29013A01488550E047
S113140060E070E0762F652F542F44278F81482B9E
S113141080E591E00E94390BC12C42E0D42EE12CEE
S113142052E0F52E00E012E020E032E0A201B40127
S11314308EE691E00E94BF0A89019A01AB01BC01CA
S113144080E591E00E942B0B0EC080914A0190919F
S11314504B01892B61F080E591E00E944B0B80E504
S113146091E00E94590B80E591E00E943F0B649645
S11314700FB6F894DEBF0FBECDBFDF91CF911F91A1
S11314800F91FF90EF90DF90CF90BF90AF909F901F
S11314908F907F906F905F904F90089578943998D3
S11314A0599A2FEF89EF90E0215080409040E1F766
S11314B000C0000089B1827090E090934B0180934A
S11314C04A01892B11F081E001C080E00E94EF0CF9
S11314D00E94C20680914A0190914B01892B81F0B0
S11314E080E591E00E94270B80E591E00E944B0B80
S11314F080E591E00E94590B80E591E00E943F0B4A
S11315000E94CE062FEF83ED90E32150804090405F
S1131510E1F700C0000080914A0190914B01892BB2
S113152011F00E949E040E94C5032FE088E190E020
S11315300FB6F894A895809360000FBE20936000C6
S1131540A8950E941E070E94D4060E943307F8CF74
S11315508DE591E00E94B00A80E591E00C94B00A18
S1131560FC01108211821282138214821582168267
S11315701782108611861286138614860895AF92F8
S1131580BF92CF92DF92EF92FF920F931F93CF936C
S1131590DF93A62FF72FC42FB52FB22ED32FA02E53
S11315A09601932F990F990B492F592F692F792F52
S11315B0892F0AE00E948A0EEF2DEE0FEE0B2E29E2
S11315C03F294E2B5E2B6E2B7E2B8E2B9E2B0AE0FF
S11315D00E948A0EE12FEE0FEE0B2A29312B4E2B9F
S11315E05E2B6E2B7E2B8E2B9E2B0E948A0EED2F54
S11315F0EE0FEE0B2B293D2B4E2B5E2B6E2B7E2BF1
S11316008E2B9E2B0E948A0EEB2FEE0FEE0B2C2BB3
S11316103B2B4E2B5E2B6E2B7E2B8E2B9E2B0E94F8
S11316208A0EEF2FEE0FEE0B2A2B3F2B4E2B5E2B49
S11316306E2B7E2B8E2B9E2BDF91CF911F910F91C2
S1131640FF90EF90DF90CF90BF90AF90089521E08E
S1131650FC01248708950F931F93FC0104831583D1
S11316602683378340875187628773871F910F9141
S11316700895FC0140835183628373830895BC0100
S1131680FC0184854CE050E0811102C081E001C07E
S113169082E00C94920BFC01148292E0958388E022
S11316A0868320E2278320E8208711869287838718
S11316B00895FC01108211821282138208951092FF
S11316C06E0110926F011092700110927101E2E7A5
S11316D0F1E0108211821282138214821582168222
S11316E0178210927A010895FC0180818F5F8083B4
S11316F049E150E0611103C06BE371E002C06CEAA0
S113170070E080E80C949A0C611105C04BE350E042
S113171064E571E004C046E750E065EC70E080E801
S11317200C949A0CEF92FF920F931F93CF93DF9335
S11317301F92CDB7DEB789838B017A0141E050E077
S1131740BE016F5F7F4F81E00E94FF0BA701B801CC
S113175081E40E94FF0B0F90DF91CF911F910F91B5
S1131760FF90EF900895FC0191818081813A31F4DA
S113177081E0913091F0933089F411C0813271F499
S11317809B3021F4828180931A0105C09A3031F490
S113179082818093190181E00895089580E008957D
S11317A0615030F02091F100FC0120830196F8CFC4
S11317B0289884E68093810108952FB7FC01208343
S11317C0F89467706093E9000895CF93DF931F92B4
S11317D0CDB7DEB7682FCE0101960E94DD0B909144
S11317E0E800892F807295FF04C09091F20080E494
S11317F0891B99819FBF0F90DF91CF9108954F92DC
S11318005F926F927F928F929F92AF92BF92CF928C
S1131810DF92EF92FF920F931F93CF93DF931F9268
S1131820CDB7DEB7682E7B01B42E752E8091800172
S1131830882369F0042F152F8AEF482E862D807295
S1131840982E9AE3A92E962D9074892E11C08FEFAD
S11318509FEF53C0862D0E94E50B582E81110CC0BA
S11318604A94A9F38FE99FE00197F1F700C00000C3
S11318700115110579F737C0282F30E00217130737
S11318800CF4502EC52CD12C0C191D09662DCE013B
S113189001960E94DD0B992039F05A949FEF591656
S11318A0B1F01092F100F9CFF701852D67FE07C062
S11318B0815058F094919093F1003196F9CF815072
S11318C020F091919093F100FACFEC0CFD1C8091E3
S11318D0E80085FF0FC00115110511F481100AC03D
S11318E089818FBFC5CF5D9884E6809382018B2D5B
S11318F0972D03C0A092E800F3CF0F90DF91CF9112
S11319001F910F91FF90EF90DF90CF90BF90AF9019
S11319109F908F907F906F905F904F90089510925A
S1131920E90010927F0110927E0190937D018093D3
S11319307C010895CF93DF93FB0120E030E0DEEFDC
S113194024173507A1F187FF02C0C49101C0C081EB
S1131950A0917E01B0917F0160917C0170917D0125
S1131960A617B707B4F49091E8009570E1F390914D
S1131970E80092FD1EC0C093F10060917E01709159
S11319807F016F5F7F4F6F737727672B11F4D093BD
S1131990E80060917E0170917F016F5F7F4F7093CB
S11319A07F0160937E012F5F3F4F3196C9CFC901FC
S11319B002C08FEF9FEFDF91CF910895CF93DF9314
S11319C01F92CDB7DEB71982682FCE0101960E940F
S11319D0740B898190E00F90DF91CF9108958093EB
S11319E0830108951F920F920FB60F921124DF9274
S11319F0EF92FF920F931F932F933F934F935F9315
S1131A006F937F938F939F93AF93BF93EF93FF93C2
S1131A10CF93DF93CDB7DEB76297DEBFCDBF109211
S1131A20E9008091E80083FFDFC068E0CE010A96F8
S1131A300E94D00B82EF8093E8009A8597FF05C03F
S1131A408091E80080FFFCCF03C08EEF8093E80014
S1131A50892F807609F0B4C08B85811105C010925E
S1131A60F1001092F100B9C0282F2D7F213009F424
S1131A70B4C0853049F48091E80080FFFCCF8C85A8
S1131A8080688093E300A9C0863009F077C0D090C5
S1131A9083012D85E888F988223081F580E090E083
S1131AA02A8B0E948F0C8D2D0E94DE0C99E08E01F2
S1131AB00F5F1F4FF801392F11923A95E9F7998377
S1131AC02A892A8391E09E8390E898879AEF9987E0
S1131AD020917E0130917F01275F3F4F3C832B8310
S1131AE08D83C7010E948F0C49E050E0B80180E06B
S1131AF00E949A0C8D2D0E94DE0C6FC0C7012A8BA8
S1131B000E948F0C2A89223249F46D2D82E290E0E2
S1131B100E94840B892B09F060C063C0213069F4F2
S1131B2088899989089711F420937B0180917B011E
S1131B30882389F061E971E016C0233009F051C0AF
S1131B408C85882359F0823061F0813009F049C0D6
S1131B5065EB71E008C063EA71E005C06FEE71E007
S1131B6002C06DEC71E06115710509F43AC0FB0126
S1131B70449150E080E80E949A0C2FC0873089F18C
S1131B80883021F481E08093F10027C0893029F561
S1131B90937039F581E08093E9008093EB00E0E9EC
S1131BA0F1E0E491E093EC0086E38093ED008EE7AE
S1131BB08093EA001092EA008C85809380010DC026
S1131BC0888999890E948F0C8E8581110AC0CE0163
S1131BD00A960E94B30B882321F08EEF8093E800CD
S1131BE003C081E28093EB0062960FB6F894DEBFE7
S1131BF00FBECDBFDF91CF91FF91EF91BF91AF9118
S1131C009F918F917F916F915F914F913F912F9110
S1131C101F910F91FF90EF90DF900F900FBE0F90E8
S1131C201F9018951F920F920FB60F9211248F9345
S1131C309F938091E1001092E10083FF0FC0109206
S1131C40E90091E09093EB001092EC0092E3909302
S1131C50ED001092800198E09093F00082FF1AC08A
S1131C6080918201882339F0809182018150809390
S1131C708201882369F080918101882359F0809141
S1131C808101815080938101811104C0289A02C08E
S1131C905D9AF1CF9F918F910F900FBE0F901F907F
S1131CA01895052E97FB1EF400940E94680E57FDAC
S1131CB007D00E94A30E07FC03D04EF40C94680EC8
S1131CC050954095309521953F4F4F4F5F4F089564
S1131CD090958095709561957F4F8F4F9F4F089594
S1131CE0A29FB001B39FC001A39F700D811D112459
S1131CF0911DB29F700D811D1124911D08950E94A4
S1131D00700EA59F900DB49F900DA49F800D911D02
S1131D10112408950F93083090F0982F872F762F71
S1131D20652F542F432F322F22270850F4CF220F30
S1131D30331F441F551F661F771F881F991F0A955D
S1131D40B2F70F910895A1E21A2EAA1BBB1BFD0145
S1131D500DC0AA1FBB1FEE1FFF1FA217B307E40786
S1131D60F50720F0A21BB30BE40BF50B661F771FDE
S1131D70881F991F1A9469F76095709580959095BE
S1131D809B01AC01BD01CF010895EE0FFF1F05902B
S1131D90F491E02D0994FB01DC0104C08D910190C4
S1131DA0801921F441505040C8F7881B990B0895BD
S1071DB0F894FFCFD1
S1131DB40100AA0345013C012601A303020086068F
S10F1DC48D05B6067705880605010100B0
S9030000FC
