S01500004475616C43756265546F5553422E737265635D
S11300000C94FC000C9424010C9424010C94240101
S11300100C9424010C9424010C9424010C942401C8
S11300200C9424010C9424010C94400F0C94120E93
S11300300C9424010C9424010C9424010C942401A8
S11300400C9424010C9424010C9424010C94240198
S11300500C9424010C9424010C9424010C94240188
S11300600C9424010C9424010C9424010C94240178
S11300700C9424010C9424010C9424010C94240168
S11300800C9424010C9424010C9424010C94240158
S11300900C9424010C9424010C9424010C94240148
S11300A00C9424010C9424010C94240109040000F0
S11300B00103000000092101010001227600070567
S11300C0810340000105010905A1018501A1000585
S11300D009190129201500250195207501810205C2
S11300E00109300931093309340935093615002667
S11300F0FF03750A95068102950175048103C0C04A
S113010005010905A1018502A1000509190129209C
S11301101500250195207501810205010930093179
S11301200933093409350936150026FF03750A9584
S1130130068102950175048103C0C0090400000111
S113014003000000092101010001223B0007058191
S11301500340000105010905A1018501A10005096C
S11301601901292015002501952075018102050139
S1130170093009310933093409350936150026FFD8
S113018003750A95068102950175048103C0C000B8
S1130190C112010002000000404F1B341200010193
S11301A002000112010002000000404F1B34120043
S11301B00101020001180353007000610072006B1A
S11301C000460075006E0020002000200022034E2F
S11301D00069006E00740065006E0064006F00200A
S11301E00054006F0020005500530042002000041A
S11301F003090400910B510C11241FBECFEFDAE068
S1130200DEBFCDBF11E0A0E0B1E0E4E1F0E202C066
S113021005900D92AC31B107D9F722E0ACE1B1E021
S113022001C01D92A838B207E1F711E0C8EFD1E090
S113023004C02297FE010E94F70FC43FD107C9F7FB
S11302400E942B0B0C9408100C940000009741F0B2
S113025028E0E2E3F1E0DC0101900D922A95E1F758
S113026088E0E2E3F1E0AAE2B1E001900D928A9520
S1130270E1F788E090E0089548E050E06AE271E038
S113028082E391E00E94FB0F08951F93CF93DF93C5
S1130290CDB7DEB766970FB6F894DEBF0FBECDBFFD
S11302A0182F1982882339F061E070E0CE0101969D
S11302B00E94DD0406C061E070E0CE0101960E9458
S11302C0E903883109F053C280E48A8383E08B8395
S11302D01C82112339F063E070E0CE0102960E9483
S11302E0DD0406C063E070E0CE0102960E94E903DB
S11302F0803409F03EC2FE01329688E0DF011D928F
S11303008A95E9F78A8120E030E070E040E850E027
S1130310682FF901EC56FE4F8081882341F0CA0111
S1130320022E02C0959587950A94E2F701C0872FA3
S1130330862B2F5F3F4F2830310551F78A838B81FD
S113034020E030E070E040E850E0682FF901E45626
S1130350FE4F8081882341F0CA01022E02C0959588
S113036087950A94E2F701C0872F862B2F5F3F4FB2
S11303702830310551F780958B838C8120E030E063
S113038070E040E850E0682FF901EC55FE4F8081A1
S1130390882341F0CA01022E02C0959587950A94DC
S11303A0E2F701C0872F862B2F5F3F4F283031059E
S11303B051F78C836D8120E030E070E040E850E03C
S11303C0F901E455FE4F8081811108C0CA01022E53
S11303D002C0959587950A94E2F701C0872F682B90
S11303E02F5F3F4F2830310559F76D838E8120E010
S11303F030E070E040E850E0682FF901EC54FE4F23
S11304008081882341F0CA01022E02C09595879508
S11304100A94E2F701C0872F862B2F5F3F4F2830C5
S1130420310551F780958E838F8120E030E070E0B4
S113043040E850E0682FF901E454FE4F808188239E
S113044041F0CA01022E02C0959587950A94E2F7FD
S113045001C0872F862B2F5F3F4F2830310551F77E
S113046080958F83488520E030E087E090E070E05D
S113047061E0FC01E21BF30BEC57FE4F5081552366
S113048039F0562F022E01C0550F0A94EAF701C025
S1130490572F452B2F5F3F4F2530310551F7809162
S11304A08D01882311F050E201C050E0452B80916A
S11304B08E01882311F050E401C050E0452B809157
S11304C08F01882311F080E801C080E0482B488721
S11304D0298580E090E050E041E0FC01E057FE4FC8
S11304E03081332339F0342F082E01C0330F0A949E
S11304F0EAF701C0352F232B01968430910569F763
S1130500298781E48E8BFE013A968CE0DF011D92EF
S11305108A95E9F7112339F061E070E0CE0146963F
S11305200E94DD0406C061E070E0CE0146960E94A0
S1130530E903803509F0F1C04A855B8580E090E0ED
S1130540B0E0A0E060E870E0FC01EC56FE4F2081D2
S1130550222341F09B01082E02C0359527950A9469
S1130560E2F702C02B2F3A2F422B532B01968830EF
S1130570910551F75B874A874C855D8580E090E063
S1130580B0E0A0E060E870E0FC01E456FE4F20819A
S1130590222341F09B01082E02C0359527950A9429
S11305A0E2F702C02B2F3A2F242B352B01968830EB
S11305B0910511F0A901E8CF20953D872C874E8540
S11305C05F8580E090E0B0E0A0E060E870E0FC01CE
S11305D0EC55FE4F2081222341F09B01082E02C0DE
S11305E0359527950A94E2F702C02B2F3A2F422B18
S11305F0532B01968830910551F75F874E874889C0
S1130600598980E090E0B0E0A0E060E870E0FC018F
S1130610E455FE4F2081211108C09B01082E02C021
S1130620359527950A94E2F702C02B2F3A2F242BF5
S1130630352B01968830910511F0A901E8CF398B4B
S1130640288B4A895B8980E090E0B0E0A0E060E814
S113065070E0FC01EC54FE4F2081222341F09B0109
S1130660082E02C0359527950A94E2F702C02B2F75
S11306703A2F242B352B01968830910511F0A901CE
S1130680E8CF20953B8B2A8B4C895D8980E090E0F4
S1130690B0E0A0E060E870E0FC01E454FE4F20818B
S11306A0222341F09B01082E02C0359527950A9418
S11306B0E2F702C02B2F3A2F242B352B01968830DA
S11306C0910511F0A901E8CF20953D8B2C8BFE01FB
S11306D03A96AEE1B1E0AE014E5E5F4F2FE730E0F7
S11306E081919191B901681B790B6D937D93E41706
S11306F0F507B1F785EF90E02A893B89DC01A21B5D
S1130700B30BB0932701A09326012C893D89821B4A
S1130710930B9093290180932801EEE1F1E0DE012F
S113072012968AE291E0208132963C91230F2D9318
S1130730E817F907C1F786E0FE013296A2E3B1E0BB
S113074001900D928A95E1F780911C0190911D0111
S1130750892B29F08FE780933601809337018885B0
S11307608093380189858093390180E003C081E05A
S113077001C081E066960FB6F894DEBF0FBECDBF10
S1130780DF91CF911F9108950E94450191E081115D
S113079090E0892F08950E944501811113C0809132
S11307A08D01882359F080918E01882339F081E0EE
S11307B090E090931D0180931C01089510921D01F7
S11307C010921C01089580E091E008953E984698A7
S11307D008950F931F93CF93DF93F894662309F43E
S11307E05DC07727161617060CF5A82FB92F660FCC
S11307F0771F660F771F660F771F40E050E010E801
S11308000FC0DC91DC23FC01EC57FE4FD083019632
S1130810C69528173907A9F711964617570741F0C7
S1130820CA01485F5F4F9A01C12FEBCF80E090E08F
S1130830E4E8F1E0CF93DF93EF93FF93019100237A
S113084011F069F41BC000003E9A1DE014D03E98DC
S11308500000000000000000019781F70FC03E9ADD
S113086012E0000008D03E9819E005D00000000016
S1130870019721F703C01A95F1F7089500000000CD
S1130880FF91EF91DF91CF913E9A12E00000F3DFE8
S11308903E980FEF0A9511F0369BFCCFE4E8F1E0A7
S11308A0EF93FF93882700270395A1F03699FCCF97
S11308B008C00BE4039572F03699FCCF839551F090
S11308C001930BE4039532F0369BFCCF839511F032
S11308D00193EFCFFF91EF91782F282F30E021156E
S11308E0310511F180FF23C0882381F0DF01C1E0CD
S11308F0D0E0CD01608151814C2F651708F04D2F58
S11309004D9332964A2F481B4717A0F378948AE1F7
S11309108A95F1F700C021503109C90199230CF4DB
S113092001969595879505C080E090E002C080E02F
S113093090E0DF91CF911F910F910895CF93DF93B2
S11309401F92CDB7DEB7198261E070E0CE01019647
S11309500E94E903009711F1489719F580918801E5
S1130960811188E0909189019111846090918A01AC
S11309709111826090918B01911181608A3028F4E9
S1130980883090F4853021F006C08B3069F003C0C4
S113099081E090E00BC084E090E008C080E090E04B
S11309A005C084E090E002C082E090E00F90DF9107
S11309B0CF91089587988F9808950F931F93CF939D
S11309C0DF93F894662309F45AC07727161617069E
S11309D0F4F4EC01860F971F20E030E010E810C01B
S11309E078817623FD01EC57FE4F7083119666954E
S11309F0A217B307A9F72196C817D90751F09A018E
S1130A00D901A901485F5F4F9A01612FE9CFA0E0A6
S1130A10B0E0E4E8F1E0CF93DF93EF93FF9301912B
S1130A20002311F069F41BC00000879A1DE014D064
S1130A3087980000000000000000119781F70FC0A4
S1130A40879A12E0000008D0879819E005D00000CA
S1130A500000119721F703C01A95F1F708950000DB
S1130A600000FF91EF91DF91CF91879A12E000008F
S1130A70F3DF87980FEF0A9511F07F9BFCCFE4E832
S1130A80F1E0EF93FF93882700270395A1F07F9966
S1130A90FCCF08C00BE4039572F07F99FCCF8395DB
S1130AA051F001930BE4039532F07F9BFCCF8395C7
S1130AB011F00193EFCFFF91EF91782F282F30E0C1
S1130AC02115310511F180FF23C0882381F0DF0156
S1130AD0C1E0D0E0CD01608151814C2F651708F051
S1130AE04D2F4D9332964A2F481B4717A0F3789405
S1130AF08AE18A95F1F700C021503109C90199238F
S1130B000CF401969595879505C080E090E002C0AD
S1130B1080E090E0DF91CF911F910F910895CF93E2
S1130B20DF931F92CDB7DEB7198261E070E0CE018A
S1130B3001960E94DD04009711F1489719F5809100
S1130B408801811188E090918901911184609091CC
S1130B508A019111826090918B01911181608A3098
S1130B6028F4883090F4853021F006C08B3069F089
S1130B7003C081E090E00BC084E090E008C080E016
S1130B8090E005C084E090E002C082E090E00F9025
S1130B90DF91CF910895009741F028E0E2E4F1E07D
S1130BA0DC0101900D922A95E1F788E0E2E4F1E09E
S1130BB0AAE3B1E001900D928A95E1F788E090E014
S1130BC008951F93CF93DF93CDB7DEB7A6970FB6E3
S1130BD0F894DEBF0FBECDBF182F1982811107C054
S1130BE061E070E0CE0101960E94E90306C061E075
S1130BF070E0CE0101960E94DD04883121F010924C
S1130C0018018FEFE0C080919B01882331F080911F
S1130C101801853011F41092180180919B01811103
S1130C2003C085E08093180181E08983111107C016
S1130C3061E070E0CE0101960E94E90306C061E024
S1130C4070E0CE0101960E94DD04803209F0B8C044
S1130C5019821A821B821C8220E080E090E050E01E
S1130C6041E0FC01EC57FE4F3081332339F0342F3F
S1130C70082E01C0330F0A94EAF701C0352F232B45
S1130C8001968430910569F780E090E050E040E1FE
S1130C90FC01E057FE4F3081332339F0342F082E06
S1130CA001C0330F0A94EAF701C0352F232B0196B4
S1130CB08430910569F72B8390918E0181E0911125
S1130CC001C080E09C81892B90918F01992311F0C0
S1130CD092E001C090E0892B8C83298180E090E030
S1130CE070E040E850E0622FFC01EC56FE4F20819A
S1130CF0222341F09A01082E02C0359527950A94C3
S1130D00E2F701C0272F262B01968830910559F769
S1130D1029832A8180E090E070E040E850E0622F6F
S1130D20FC01E456FE4F2081222341F09A01082E53
S1130D3002C0359527950A94E2F701C0272F262B88
S1130D4001968830910559F72A83898181588093C7
S1130D5042018FE7982F921B9093430180934401A3
S1130D608093450180934601809347018B81809352
S1130D7048018C818093490190918801992319F04D
S1130D8084608093490180918901882329F0E9E4F2
S1130D90F1E080818860808380918A01882329F032
S1130DA0E9E4F1E080818061808380918B01882374
S1130DB049F0E9E4F1E080818062808380E003C04F
S1130DC08FEF01C080E0A6960FB6F894DEBF0FBE89
S1130DD0CDBFDF91CF911F9108950E94E105089541
S1130DE00F931F93CF93DF931F92CDB7DEB7082FD6
S1130DF085E0809318011FE02FEF86E791E02150F2
S1130E0080409040E1F700C000001982011107C042
S1130E1061E070E0CE0101960E94E90306C061E042
S1130E2070E0CE0101960E94DD04489719F011503C
S1130E3019F701C011E0812F0F90DF91CF911F911D
S1130E400F91089548E050E06AE371E082E491E094
S1130E500E94FB0F08958CE091E0089517B88FEF7E
S1130E6088B910BA81BB089580916C0190916D018D
S1130E70892B59F50E949E048130910519F002973F
S1130E8099F023C00E942B0790936D0180936C010D
S1130E90DC011296ED91FC91139780E00995109274
S1130EA04F0110924E0111C00E94E30390936D0113
S1130EB080936C01DC011296ED91FC91139780E014
S1130EC0099510924F0110924E0180914A01909120
S1130ED04B01892B89F180916A0190916B01892BD7
S1130EE059F50E948F058130910519F0029799F008
S1130EF008950E942B0790936B0180936A01DC0193
S1130F001296ED91FC91139781E0099510924D0191
S1130F1010924C0108950E94E30390936B01809317
S1130F206A01DC011296ED91FC91139781E0099519
S1130F3010924D0110924C01089580914E019091B0
S1130F404F014F9724F010926D0110926C01809123
S1130F504C0190914D014F9724F010926B01109227
S1130F606A0108954F925F926F927F928F929F923F
S1130F70AF92BF92CF92DF92EF92FF920F931F93A3
S1130F80CF93DF93CDB7DEB764970FB6F894DEBF87
S1130F900FBECDBFE0916C01F0916D01309709F463
S1130FA08FC10480F581E02D80E00995882351F0FC
S1130FB080914E0190914F01019690934F0180933F
S1130FC04E0104C010924F0110924E01E0916C0149
S1130FD0F0916D0180819181019709F01CC1008419
S1130FE0F185E02D61E070E0CE010196099529813B
S1130FF02B3138F0243E50F4822F90E0A0E0B0E092
S113100009C08BE190E0A0E0B0E004C083EE90E082
S1131010A0E0B0E09C01AD012B5131094109510917
S1131020AFEFB3E00E94AF0F28EC30E040E050E0B7
S11310300E94810F29873A874B875C872A812B314D
S113104038F0243E50F4822F90E0A0E0B0E009C0D4
S11310508BE190E0A0E0B0E004C083EE90E0A0E07B
S1131060B0E09C01AD012B51310941095109AFEFA9
S1131070B3E00E94AF0F28EC30E040E050E00E9463
S1131080810F2D873E874F87588B2B81253238F06F
S11310902A3D50F4822F90E0A0E0B0E009C085E240
S11310A090E0A0E0B0E004C089ED90E0A0E0B0E002
S11310B09C01AD012552310941095109AFEFB3E05B
S11310C00E94AF0F24EB30E040E050E00E94810F1B
S11310D049015A012C81253238F02A3D50F4822FDF
S11310E090E0A0E0B0E009C085E290E0A0E0B0E0CC
S11310F004C089ED90E0A0E0B0E09C01AD01255270
S1131100310941095109AFEFB3E00E94AF0F24EB5D
S113111030E040E050E00E94810F29013A012D8126
S1131120263438F0263F50F4822F90E0A0E0B0E05F
S113113009C086E490E0A0E0B0E004C085EF90E050
S1131140A0E0B0E09C01AD012654310941095109E8
S1131150AFEFB3E00E94AF0F2FEA30E040E050E081
S11311600E94810F298B3A8B4B8B5C8B8E8186344A
S113117038F0863F68F4C82ED12CE12CF12C0FC036
S11311800F2EF6E4CF2ED12CE12CF12CF02D07C03C
S11311900F2EF5EFCF2ED12CE12CF12CF02D48851C
S11311A050E060E070E0762F652F542F44278F8144
S11311B0482B8DE591E00E94250CA7019601265449
S11311C0310941095109AFEFB3E00E94AF0F2FEA93
S11311D030E040E050E00E94810F6901E988FA881C
S11311E0820194014D855E8569857A858EE691E05C
S11311F00E94A90B022F132F242F352F462F572F70
S1131200682F792F8DE591E00E94170C8DE591E010
S11312100E942B0C61C00084F185E02D61E070E038
S1131220CE0101960995298130E0AFEFB3E00E9429
S1131230A00FC12CD12C7601CA94A70196010E945B
S1131240810F49015A012A8130E0AFEFB3E00E94D7
S1131250A00FA70196010E94810F29013A01488538
S113126050E060E070E0762F652F542F44278F8183
S1131270482B8DE591E00E94250CC12C6894DD2457
S1131280D1F8E12C6894FF24F1F800E012E020E0AA
S113129032E0A201B4018EE691E00E94A90B022F74
S11312A0132F242F352F462F572F682F792F8DE595
S11312B091E00E94170C8DE591E00E942B0C0CC06C
S11312C08DE591E00E943D0C8DE591E00E944B0C70
S11312D08DE591E00E942B0CE0916A01F0916B0185
S11312E0309709F48FC10480F581E02D81E00995E0
S11312F0882351F080914C0190914D010196909377
S11313004D0180934C0104C010924D0110924C0188
S1131310E0916A01F0916B0180819181019709F05C
S11313201CC10084F185E02D61E070E0CE010196DE
S1131330099529812B3138F0243E50F4822F90E016
S1131340A0E0B0E009C08BE190E0A0E0B0E004C010
S113135083EE90E0A0E0B0E09C01AD012B51310997
S113136041095109AFEFB3E00E94AF0F28EC30E020
S113137040E050E00E94810F29873A874B875C87C1
S11313802A812B3138F0243E50F4822F90E0A0E0E3
S1131390B0E009C08BE190E0A0E0B0E004C083EECF
S11313A090E0A0E0B0E09C01AD012B51310941096E
S11313B05109AFEFB3E00E94AF0F28EC30E040E0FA
S11313C050E00E94810F2D873E874F87588B2B81D9
S11313D0253238F02A3D50F4822F90E0A0E0B0E0AE
S11313E009C085E290E0A0E0B0E004C089ED90E09F
S11313F0A0E0B0E09C01AD01255231094109510939
S1131400AFEFB3E00E94AF0F24EB30E040E050E0D8
S11314100E94810F49015A012C81253238F02A3D5E
S113142050F4822F90E0A0E0B0E009C085E290E0A3
S1131430A0E0B0E004C089ED90E0A0E0B0E09C0141
S1131440AD012552310941095109AFEFB3E00E94C2
S1131450AF0F24EB30E040E050E00E94810F2901FF
S11314603A012D81263438F0263F50F4822F90E043
S1131470A0E0B0E009C086E490E0A0E0B0E004C0E1
S113148085EF90E0A0E0B0E09C01AD012654310965
S113149041095109AFEFB3E00E94AF0F2FEA30E0EA
S11314A040E050E00E94810F298B3A8B4B8B5C8B80
S11314B08E81863438F0863F68F4C82ED12CE12C16
S11314C0F12C0FC00F2EF6E4CF2ED12CE12CF12CF1
S11314D0F02D07C00F2EF5EFCF2ED12CE12CF12CDF
S11314E0F02D488550E060E070E0762F652F542F92
S11314F044278F81482B80E591E00E94250CA701A9
S113150096012654310941095109AFEFB3E00E9415
S1131510AF0F2FEA30E040E050E00E94810F6901F4
S1131520E988FA88820194014D855E8569857A850A
S11315308EE691E00E94A90B022F132F242F352F42
S1131540462F572F682F792F80E591E00E94170CC2
S113155080E591E00E942B0C67C00084F185E02DAA
S113156061E070E0CE0101960995298130E0AFEF8A
S1131570B3E00E94A00FC12CD12C7601CA94A7011C
S113158096010E94810F49015A012A8130E0AFEF90
S1131590B3E00E94A00FA70196010E94810F2901C8
S11315A03A01488550E060E070E0762F652F542FB3
S11315B044278F81482B80E591E00E94250CC12CA3
S11315C06894DD24D1F8E12C6894FF24F1F800E05C
S11315D012E020E032E0A201B4018EE691E00E9424
S11315E0A90B022F132F242F352F462F572F682F87
S11315F0792F80E591E00E94170C80E591E00E942C
S11316002B0C12C080914A0190914B01892B61F0FF
S113161080E591E00E943D0C80E591E00E944B0C36
S113162080E591E00E942B0C64960FB6F894DEBF1F
S11316300FBECDBFDF91CF911F910F91FF90EF901F
S1131640DF90CF90BF90AF909F908F907F906F90DE
S11316505F904F90089578943998599A2FEF89EFB5
S113166090E0215080409040E1F700C0000089B133
S1131670827090E090934B0180934A01892B21F072
S113168081E00E940F0E03C080E00E940F0E8DE5E2
S113169091E00E943D0C8DE591E00E944B0C8DE59C
S11316A091E00E942B0C80914A0190914B01892B6F
S11316B081F080E591E00E94130C80E591E00E94A6
S11316C03D0C80E591E00E944B0C80E591E00E9486
S11316D02B0C0E942E072FEF83ED90E321508040C6
S11316E09040E1F700C0000080914A0190914B01C5
S11316F0892B11F00E94DA040E94E6032FE088E1AE
S113170090E00FB6F894A895809360000FBE2093E4
S11317106000A8950E949D070E9434070E94B207AA
S1131720F8CF8DE591E00E949A0B80E591E00E944C
S11317309A0B0895FC011082118212821382148282
S113174015821682178210861186128613861486D5
S113175008959F92AF92BF92CF92DF92EF92FF9241
S11317600F931F93CF93DF93D62FF72FB42EA52F6C
S1131770A22EB32F902E3D2D2C2D9D2D990F990B1C
S1131780492F592F692F792F892F0AE00E94BA0F08
S1131790EF2DEE0FEE0B2E293F294E2B5E2B6E2BD9
S11317A07E2B8E2B9E2B0E94BA0FE12FEE0FEE0B99
S11317B02929312B4E2B5E2B6E2B7E2B8E2B9E2BB1
S11317C00E94BA0FEB2FEE0FEE0B2A293B2B4E2B68
S11317D05E2B6E2B7E2B8E2B9E2B0E94BA0FEA2F34
S11317E0EE0FEE0B2B293A2B4E2B5E2B6E2B7E2B02
S11317F08E2B9E2B0E94BA0FEF2FEE0FEE0B2D2B8C
S11318003F2B4E2B5E2B6E2B7E2B8E2B9E2BDF9134
S1131810CF911F910F91FF90EF90DF90CF90BF90E9
S1131820AF909F90089521E0FC01248708950F93C1
S11318301F93FC01048315832683378340875187D4
S1131840628773871F910F910895FC014083518330
S1131850628373830895FC012485211107C04CE041
S113186050E0BC0181E00E94820C08954CE050E0FD
S1131870BC0182E00E94820C0895FC01148292E073
S1131880958388E0868320E2278320E820871186D9
S1131890928783870895FC01108211821282138239
S11318A008958EE691E00E949A0B089561110CC090
S11318B0FC0120812F5F208349E150E06BE371E05C
S11318C080E80E94A80D0895FC0120812F5F2083E9
S11318D049E150E06CEA70E080E80E94A80D0895A8
S11318E0611108C04BE350E064E571E080E80E94B8
S11318F0A80D089546E750E065EC70E080E80E948A
S1131900A80D0895EF92FF920F931F93CF93DF9347
S11319101F92CDB7DEB789838B017A0141E050E095
S1131920BE016F5F7F4F81E00E94E70CA701B80101
S113193081E40E94E70C0F90DF91CF911F910F91EA
S1131940FF90EF900895FC0191818081813A31F4F8
S11319509D7F81E09130A9F080E00895813271F497
S11319609B3029F4828180931A0181E008959A3092
S113197039F482818093190181E0089580E008950B
S113198080E00895FC012FEF260F662351F0A1EFAC
S1131990B0E0CF0101963C913083215010F0FC015E
S11319A0F8CF289884E68093810108952FB7F8949E
S11319B087708093E9009091E800892F807295FFE9
S11319C004C09091F20080E4891B2FBF08952F92E8
S11319D03F924F925F926F927F928F929F92AF92BB
S11319E0BF92CF92DF92EF92FF920F931F93CF9308
S11319F0DF93682E6B014A0180918001882309F4EA
S1131A0080C04115510509F475C08A010F2EFAEF03
S1131A107F2EF02D862D8770482E0F2EF9EEAF2ED7
S1131A20B12CF02D962D9072592E0F2EF8EEEF2E2C
S1131A30F12CF02D0F2EFAE33F2EF02DE62DE0745D
S1131A402E2EC1EFD0E0862D0E94D60C81110AC043
S1131A507A9409F459C08FE99FE00197F1F700C027
S1131A60000044C0282F30E0021713070CF4802F25
S1131A70081B11092FB7F894F5014082552041F055
S1131A809FEF980F882341F118829150E8F724C002
S1131A9066202CF04FEF480F811113C01DC04FEF8B
S1131AA0480F8823C9F0F601942F3491388391505C
S1131AB031969F3FD1F7842F90E00196C80ED91E2E
S1131AC00BC0F601942F319138839150E0F7842FA5
S1131AD090E00196C80ED91EF701808185FF17C0DA
S1131AE00115110511F4211012C02FBF01151105A4
S1131AF009F0A9CF5D9884E680938201882D992D01
S1131B0009C08FEF9FEF06C08FEF9FEF03C0F7016F
S1131B103082EBCFDF91CF911F910F91FF90EF9027
S1131B20DF90CF90BF90AF909F908F907F906F90F9
S1131B305F904F903F902F9008951092E90010927B
S1131B407F0110927E0190937D0180937C01089522
S1131B50DF92EF92FF920F931F93CF93DF93042FA3
S1131B60152FE62FF72F20E030E0A8EEB0E00F2E7F
S1131B70F1EFEF2EF12CF02D9EEF30C0882314F4FA
S1131B80D49001C0D080C0917E01D0917F0160913A
S1131B907C0170917D01C617D7079CF46C91657028
S1131BA0E9F36C9162FD20C0E701D88260917E0167
S1131BB070917F016F5F7F4F6F737727672B09F4F5
S1131BC09C9360917E0170917F016F5F7F4F709352
S1131BD07F0160937E012F5F3F4F319620173107BD
S1131BE069F6842F952F02C08FEF9FEFDF91CF917D
S1131BF01F910F91FF90EF90DF900895CF93DF93A3
S1131C001F92CDB7DEB71982682FCE0101960E94CC
S1131C10560C898190E00F90DF91CF9108958093C5
S1131C20830108951F920F920FB60F921124DF9231
S1131C30EF92FF920F931F932F933F934F935F93D2
S1131C406F937F938F939F93AF93BF93EF93FF9380
S1131C50CF93DF93CDB7DEB76197DEBFCDBF1092D0
S1131C60E9008091E80083FFEDC068E0CE010A96A8
S1131C700E94C20C82EF8093E8009A85992334F481
S1131C80E8EEF0E0808180FFFDCF03C08EEF80930B
S1131C90E800892F807609F0BEC08B85811105C0CC
S1131CA0E1EFF0E010821082C6C0282F2D7F213092
S1131CB009F4C1C0853051F4E8EEF0E0808180FF82
S1131CC0FDCF8C8580688093E300B5C0863009F031
S1131CD080C0D09083011D85123091F5E888F98881
S1131CE080E090E00E949D0D8D2D0E94FE0D99E0F4
S1131CF08E010F5F1F4FF801292F11922A95E9F7E2
S1131D00998392E09A8391E09E8390E898879AEF72
S1131D10998720917E0130917F01275F3F4F3C835B
S1131D202B838D83C7010E949D0D49E050E0B801CB
S1131D3080E00E94A80D8D2D0E94FE0D21E079C047
S1131D40888999890E949D0D123259F46D2D82E281
S1131D5090E00E94700C21E0892B09F06AC020E019
S1131D6068C0113089F488899989089731F481E031
S1131D7080937B0161E971E01BC080917B01882322
S1131D8079F061E971E014C01330E9F48C8588239B
S1131D9051F0823059F08130C1F465EB71E008C034
S1131DA063EA71E005C06FEE71E002C06DEC71E0B2
S1131DB06115710561F0FB01449150E080E80E94D7
S1131DC0A80D21E036C020E034C020E032C020E07D
S1131DD030C08730A1F1883021F481E08093F10094
S1131DE02AC0893041F5937051F581E08093E90070
S1131DF08093EB00E0E9F1E0E491E093EC0086E30A
S1131E008093ED00EAEEF0E08EE7808310828C850B
S1131E108093800110C0888999890E949D0D8E85C8
S1131E20811106C0CE010A960E94A30C282F01C07E
S1131E3020E0222321F08EEF8093E80003C081E2AA
S1131E408093EB0061960FB6F894DEBF0FBECDBF52
S1131E50DF91CF91FF91EF91BF91AF919F918F91BE
S1131E607F916F915F914F913F912F911F910F91AE
S1131E70FF90EF90DF900F900FBE0F901F9018957A
S1131E801F920F920FB60F9211248F939F93EF938B
S1131E90FF93E1EEF0E08081108283FF0FC0109287
S1131EA0E90091E09093EB001092EC0092E39093A0
S1131EB0ED001092800198E09093F00082FF18C02A
S1131EC080918201882341F0809182018150809326
S1131ED08201811101C05D9A80918101882341F0C2
S1131EE080918101815080938101811101C0289AE0
S1131EF0FF91EF919F918F910F900FBE0F901F90C4
S1131F001895052E97FB1EF400940E94980F57FD18
S1131F1007D00E94D30F07FC03D04EF40C94980F03
S1131F2050954095309521953F4F4F4F5F4F089501
S1131F3090958095709561957F4F8F4F9F4F089531
S1131F40A29FB001B39FC001A39F700D811D1124F6
S1131F50911DB29F700D811D1124911D08950E9441
S1131F60A00FA59F900DB49F900DA49F800D911D6F
S1131F70112408950F93083090F0982F872F762F0F
S1131F80652F542F432F322F22270850F4CF220FCE
S1131F90331F441F551F661F771F881F991F0A95FB
S1131FA0B2F70F910895A1E21A2EAA1BBB1BFD01E3
S1131FB00DC0AA1FBB1FEE1FFF1FA217B307E40724
S1131FC0F50720F0A21BB30BE40BF50B661F771F7C
S1131FD0881F991F1A9469F760957095809590955C
S1131FE09B01AC01BD01CF010895EE0FFF1F0590C9
S1131FF0F491E02D0994FB01DC0104C08D91019062
S1132000801921F441505040C8F7881B990B08955A
S1072010F894FFCF6E
S11320140100CB0345013C012601C4030200ED0683
S10F2024E1052207CB05F00605010100D0
S9030000FC
