:100000000C947F010C94A7010C94A7010C94A701F8
:100010000C94A7010C94A7010C94A7010C94A701C0
:100020000C94A7010C94A7010C9417120C942E1396
:100030000C94A7010C94A7010C94A7010C94A701A0
:100040000C94A7010C94A7010C94A7010C94A70190
:100050000C94A7010C94A7010C94A7010C947F0E9B
:100060000C94A7010C94A7010C94A7010C94A70170
:100070000C94A7010C94A7010C94A7010C94A70160
:100080000C94A7010C94A7010C94A7010C94A70150
:100090000C94A7010C94A7010C94A7010C94A70140
:1000A0000C94A7010C94A7010C94A7010000000078
:1000B000240027002A002D00300000000000250049
:1000C00028002B002E003100000000002300260035
:1000D00029002C002F000404040404030405020278
:1000E00002020403020202020606060606060404D1
:1000F00002020204040802011040804010204080E7
:10010000408008020401804020100201108010206D
:1001100040400000000200080E0000030401000B34
:100120000000070605040100080A0B0C0D09050173
:100130000905A1018501A100050919012920150062
:100140002501952075018102050109300931093326
:10015000093409350936150026FF03750A9506810D
:1001600002950175048103C0C00904000001030069
:100170000000092101010001223B00070581034025
:10018000000105010905A1018501A1000509190169
:1001900029201500250195207501810205010930EE
:1001A00009310933093409350936150026FF03756D
:1001B0000A95068102950175048103C0C0050109F5
:1001C00005A1018502A100050919012920150025B5
:1001D00001952075018102050109300931093309B2
:1001E0003409350936150026FF03750A9506810284
:1001F000950175048103C0C00904000001030000DB
:100200000009210101000122760007058103400059
:100210000100000000000000002A2B280000000060
:1002200000000000000000000000000000000000CE
:10023000002C9EB4A0A1A2A434A6A7A5AE362D374B
:1002400038271E1F20212223242526B333B62EB79C
:10025000B89F8485868788898A8B8C8D8E8F9091B4
:1002600092939495969798999A9B9C9D2F3130A341
:10027000AD350405060708090A0B0C0D0E0F101109
:1002800012131415161718191A1B1C1DAFB1B0B58F
:10029000000403090422034E0069006E0074006527
:1002A000006E0064006F00200054006F00200055B5
:1002B00000530042002000180353007000610072D8
:1002C000006B00460075006E002000200020001228
:1002D000010002000000404F1B3412000101020027
:1002E0000112010002000000404F1B341200010106
:1002F00002000100C100350277088710591211244D
:100300001FBECFEFDAE0DEBFCDBF11E0A0E0B1E06D
:10031000ECE3FAE202C005900D92AA32B107D9F7D8
:1003200012E0AAE2B1E001C01D92AD3AB107E1F7D7
:1003300012E0CEEFD2E004C02297FE010E94181511
:10034000C63FD107C9F70E9460070C941C150C9496
:100350000000EF92FF920F93DF93CF93CDB7DEB7FC
:1003600060970FB6F894DEBF0FBECDBFA82F002355
:1003700009F461C07E010894E11CF11C88E0F701DA
:1003800011928A95E9F729833A834B835C836D83C5
:100390007E83AF83988780E2801BE82FFF27E7FDED
:1003A000F09549815A816B817C81181684F01986F9
:1003B0001A861B861C86882799278E1B9F0B04C0D4
:1003C000440F551F661F771F8A95D2F728C0202F2C
:1003D000332727FD3095DB01CA01022E04C0880FA8
:1003E000991FAA1FBB1F0A94D2F789879A87AB87E8
:1003F000BC8704C07695679557954795EA95D2F7DF
:100400008D819E81AF81B88504C0880F991FAA1F76
:10041000BB1F2A95D2F7482B592B6A2B7B2B4D8774
:100420005E876F87788B29853A854B855C856D85DE
:100430007E85AF8598898A2F60960FB6F894DEBFC7
:100440000FBECDBFCF91DF910F91FF90EF90089538
:10045000FB01DC0104C08D910190801921F4415011
:100460005040C8F7881B990B08958AE291E00E94DA
:10047000C90787E391E00E94C90708952F923F9230
:100480004F925F926F927F928F929F92AF92BF92A4
:10049000CF92DF92EF92FF920F931F93DF93CF9350
:1004A000CDB7DEB7A0970FB6F894DEBF0FBECDBFB5
:1004B0009E012F5F3F4F882309F07CC1E0914A01E4
:1004C000F0914B010084F185E02DC90161E070E0FD
:1004D000099569816B3128F42BE130E040E050E070
:1004E0000BC0643E28F023EE30E040E050E004C052
:1004F000262F30E040E050E000D000D08FEF93E0B6
:10050000A0E0B0E0EDB7FEB781839283A383B4830C
:10051000CA01B9012BE130E040E050E003EEE02EEB
:10052000F12C012D112DAA24BB2465010E94711408
:100530006D8F7E8F8F8F98A36A810F900F900F9091
:100540000F906B3128F42BE130E040E050E00BC01D
:10055000643E28F023EE30E040E050E004C0262F57
:1005600030E040E050E000D000D08FEF93E0A0E01A
:10057000B0E0EDB7FEB781839283A383B483CA0151
:10058000B9012BE130E040E050E013EEE12EF12C18
:10059000012D112DAA24BB2465010E947114698FBD
:1005A0007A8F8B8F9C8F6B810F900F900F900F9095
:1005B000653228F425E230E040E050E00BC06A3DAF
:1005C00028F029ED30E040E050E004C0262F30E074
:1005D00040E050E000D000D08FEF93E0A0E0B0E02A
:1005E000EDB7FEB781839283A383B483CA01B901B7
:1005F00025E230E040E050E0B9EDEB2EF12C012D8A
:10060000112DAA24BB2465010E9471146D8B7E8B71
:100610008F8B988F6C810F900F900F900F90653299
:1006200028F425E230E040E050E00BC06A3D28F0BD
:1006300029ED30E040E050E004C0262F30E040E0FB
:1006400050E000D000D08FEF93E0A0E0B0E0EDB735
:10065000FEB781839283A383B483CA01B90125E2E3
:1006600030E040E050E0A9EDEA2EF12C012D112DF3
:10067000AA24BB2465010E9471141B012C016D8109
:100680000F900F900F900F90663428F426E430E01E
:1006900040E050E00BC0663F28F025EF30E040E03E
:1006A00050E004C0262F30E040E050E000D000D001
:1006B0008FEF93E0A0E0B0E0EDB7FEB781839283C7
:1006C000A383B483CA01B90126E430E040E050E0DE
:1006D000F5EFEF2EF12C012D112DAA24BB2465017D
:1006E0000E9471143B014C016E810F900F900F908E
:1006F0000F90663428F426E430E040E050E00BC070
:10070000663F28F025EF30E040E050E004C0262F9F
:1007100030E040E050E000D000D08FEF93E0A0E068
:10072000B0E0EDB7FEB781839283A383B483CA019F
:10073000B90126E430E040E050E0E5EFEE2EF12C88
:10074000012D112DAA24BB2465010E9471145B01A7
:100750006C01488550E060E070E0762F652F542FE3
:1007600044270F900F900F900F908F8190E0A0E0A2
:10077000B0E0482B592B6A2B7B2B8AE291E00E9438
:100780005D088EE491E06D8D7E8D498D5A8D2D89A9
:100790003E898101730165010E94D807FC018AE24C
:1007A00091E089019A01AB01BF010E944F088AE2E2
:1007B00091E07BC1E0914C01F0914D010084F18505
:1007C000E02DC90161E070E0099569816B3128F481
:1007D0002BE130E040E050E00BC0643E28F023EE17
:1007E00030E040E050E004C0262F30E040E050E030
:1007F00000D000D08FEF93E0A0E0B0E0EDB7FEB7FF
:1008000081839283A383B483CA01B9012BE130E0D1
:1008100040E050E003EEE02EF12C012D112DAA2432
:10082000BB2465010E947114698B7A8B8B8B9C8B26
:100830006A810F900F900F900F906B3128F42BE18D
:1008400030E040E050E00BC0643E28F023EE30E0A2
:1008500040E050E004C0262F30E040E050E000D0FF
:1008600000D08FEF93E0A0E0B0E0EDB7FEB781835A
:100870009283A383B483CA01B9012BE130E040E045
:1008800050E013EEE12EF12C012D112DAA24BB24F2
:1008900065010E9471146D877E878F87988B6B81AD
:1008A0000F900F900F900F90653228F425E230E002
:1008B00040E050E00BC06A3D28F029ED30E040E018
:1008C00050E004C0262F30E040E050E000D000D0DF
:1008D0008FEF93E0A0E0B0E0EDB7FEB781839283A5
:1008E000A383B483CA01B90125E230E040E050E0BF
:1008F000B9EDEB2EF12C012D112DAA24BB2465019D
:100900000E94711469877A878B879C876C810F900E
:100910000F900F900F90653228F425E230E040E010
:1009200050E00BC06A3D28F029ED30E040E050E097
:1009300004C0262F30E040E050E000D000D08FEF20
:1009400093E0A0E0B0E0EDB7FEB781839283A3838C
:10095000B483CA01B90125E230E040E050E0A9EDDE
:10096000EA2EF12C012D112DAA24BB2465010E9431
:1009700071141B012C016D810F900F900F900F903F
:10098000663428F426E430E040E050E00BC0663FD7
:1009900028F025EF30E040E050E004C0262F30E0A2
:1009A00040E050E000D000D08FEF93E0A0E0B0E056
:1009B000EDB7FEB781839283A383B483CA01B901E3
:1009C00026E430E040E050E0F5EFEF2EF12C012D71
:1009D000112DAA24BB2465010E9471143B014C0116
:1009E0006E810F900F900F900F90663428F426E4DC
:1009F00030E040E050E00BC0663F28F025EF30E0EB
:100A000040E050E004C0262F30E040E050E000D04D
:100A100000D08FEF93E0A0E0B0E0EDB7FEB78183A8
:100A20009283A383B483CA01B90126E430E040E095
:100A300050E0E5EFEE2EF12C012D112DAA24BB2460
:100A400065010E9471145B016C01488550E060E013
:100A500070E0762F652F542F44270F900F900F9042
:100A60000F908F8190E0A0E0B0E0482B592B6A2BCB
:100A70007B2B87E391E00E945D088EE491E0698919
:100A80007A894D855E8529853A85810173016501E5
:100A90000E94D807FC0187E391E089019A01AB012C
:100AA000BF010E944F0887E391E00E948D08A09645
:100AB0000FB6F894DEBF0FBECDBFCF91DF911F916F
:100AC0000F91FF90EF90DF90CF90BF90AF909F90ED
:100AD0008F907F906F905F904F903F902F900895F0
:100AE0002F923F924F925F926F927F928F929F923E
:100AF000AF92BF92CF92DF92EF92FF920F931F932C
:100B0000DF93CF93CDB7DEB728970FB6F894DEBF4B
:100B10000FBECDBF9E012F5F3F4F882309F073C0EA
:100B2000E0914A01F0914B010084F185E02DC9016B
:100B300061E070E0099500D000D0698170E080E04C
:100B400090E01FEF612E13E0712E812C912CEDB7F8
:100B5000FEB7618272828382948220E030E040E0BE
:100B600050E0BFEFEB2EF12C012D112DAA24BB2458
:100B700065010E9471141B012C016A8170E080E004
:100B800090E0EDB7FEB7618272828382948220E0AA
:100B900030E040E050E00E9471147B018C014885F8
:100BA00050E060E070E0762F652F542F44270F90BF
:100BB0000F900F900F908F8190E0A0E0B0E0482B55
:100BC000592B6A2B7B2B8AE291E00E945D088EE410
:100BD00091E0B101A70120E032E000E012E0E12C59
:100BE000F2E0FF2EC12CE2E0DE2E0E94D807FC01CD
:100BF0008AE291E089019A01AB01BF010E944F088E
:100C00008AE291E072C0E0914C01F0914D010084C4
:100C1000F185E02DC90161E070E0099500D000D0B8
:100C2000698170E080E090E01FEF612E13E0712E8B
:100C3000812C912CEDB7FEB76182728283829482FF
:100C400020E030E040E050E0BFEFEB2EF12C012D32
:100C5000112DAA24BB2465010E9471141B012C01D3
:100C60006A8170E080E090E0EDB7FEB76182728249
:100C70008382948220E030E040E050E00E947114D2
:100C80007B018C01488550E060E070E0762F652F95
:100C9000542F44270F900F900F900F908F8190E06A
:100CA000A0E0B0E0482B592B6A2B7B2B87E391E027
:100CB0000E945D088EE491E0B101A70120E032E0DE
:100CC00000E012E0E12CF2E0FF2EC12CE2E0DE2E8B
:100CD0000E94D807FC0187E391E089019A01AB01EA
:100CE000BF010E944F0887E391E00E948D0828967B
:100CF0000FB6F894DEBF0FBECDBFCF91DF911F912D
:100D00000F91FF90EF90DF90CF90BF90AF909F90AA
:100D10008F907F906F905F904F903F902F900895AD
:100D2000882359F48AE291E00E9463088AE291E004
:100D30000E9471088AE291E00AC087E391E00E9474
:100D4000630887E391E00E94710887E391E00E94C5
:100D50008D080895E0914A01F0914B01309729F1F7
:100D60000480F581E02D80E00995882351F0809181
:100D7000440190914501019690934501809344016F
:100D800004C01092450110924401E0914A01F09193
:100D90004B0180819181019721F480E00E943E0205
:100DA00007C080E00E94700503C080E00E949006AA
:100DB000E0914C01F0914D01309729F10480F581CB
:100DC000E02D81E00995882351F0809146019091B2
:100DD00047010196909347018093460104C0109209
:100DE000470110924601E0914C01F0914D01808144
:100DF0009181019721F481E00E943E02089581E0F3
:100E00000E94700508958091480190914901892BB5
:100E100019F081E00E949006089580914A01909116
:100E20004B01892B01F50E94FA0B8130910519F0D5
:100E30000297A9F403C00E942A0D02C00E949A08DA
:100E4000FC0190934B0180934A010280F381E02DD5
:100E500080E00995109245011092440104C010925F
:100E60004B0110924A018091480190914901892BD0
:100E700031F180914C0190914D01892B01F50E9437
:100E8000EE0C8130910519F00297A9F403C00E947D
:100E90002A0D02C00E949A08FC0190934D01809394
:100EA0004C010280F381E02D81E009951092470109
:100EB00010924601089510924B0110924A01089534
:100EC0000E94200F82E062E00E94800F64E170E0E7
:100ED00080E090E00E94C70E82E00E941D10909377
:100EE000490180934801892B11F081E001C080E025
:100EF0000E94141287EA91E00E945A1280E00E9438
:100F000090068091480190914901892B39F087E33F
:100F100091E00E944B0881E00E94900617B88FEF85
:100F200088B910BA81BB68EB7BE080E090E00E945A
:100F3000C70E8091480190914901892B11F00E94C0
:100F4000360C0E943F0B2FE088E190E00FB6F8943A
:100F5000A895809360000FBE209360007894A895B8
:100F600080914401909145014F9724F010924B01DC
:100F700010924A0180914601909147014F9724F0C9
:100F800010924D0110924C010E940D070E94AA067A
:100F9000E5CFFC0110821182128213821482158225
:100FA000168217821086118612861386148608957B
:100FB0004F925F926F927F928F929F92AF92BF9269
:100FC000CF92DF92EF92FF920F931F932B013A0182
:100FD00049015801F601FF0FEE0BFE2F96014E2F2F
:100FE0005E2F6E2F7E2F8E2F9E2F0AE00E94A9016A
:100FF000F701FF0FEE0BFE2F2E293F294E2B5E2B04
:101000006E2B7E2B8E2B9E2B0E94A901F501FF0FCC
:10101000EE0BFE2F2A293B294E2B5E2B6E2B7E2BAF
:101020008E2B9E2B0E94A901F401FF0FEE0BFE2FC9
:10103000282939294E2B5E2B6E2B7E2B8E2B9E2B37
:101040000E94A901F301FF0FEE0BFE2F262937297D
:101050004E2B5E2B6E2B7E2B8E2B9E2B0E94A9017E
:10106000F201FF0FEE0BFE2F242935294E2B5E2BAC
:101070006E2B7E2B8E2B9E2B1F910F91FF90EF904E
:10108000DF90CF90BF90AF909F908F907F906F90A8
:101090005F904F90089521E0FC01248708950F93FD
:1010A0001F93FC0104831583268337834087518770
:1010B000628773871F910F910895FC0140835183CC
:1010C000628373830895FC01148222E0258398E0F3
:1010D000968380E2878380E88087118622879387C2
:1010E0000895FC01108211821282138208951092D9
:1010F0004E0110924F011092500110925101E2E501
:10110000F1E0109252011182128213821482158230
:101110001682178210925A010895FC018485882353
:1011200011F481E001C082E0BF014CE050E00E9478
:101130009410089580E091E00895009741F0DC015B
:10114000E9E6F1E088E001900D928150E1F7A1E736
:10115000B1E0E9E6F1E088E001900D928150E1F71D
:1011600088E090E0089589E691E061E771E048E069
:1011700050E00E94280208950F931F93DF93CF93AE
:10118000CDB7DEB766970FB6F894DEBF0FBECDBF02
:10119000182F1982CE010196112329F061E070E029
:1011A0000E94390C04C061E070E00E94420B88315B
:1011B00009F039C280E48B8383E08C831D82CE01E9
:1011C0000396112329F063E070E00E94390C04C0FB
:1011D00063E070E00E94420B803409F024C288E092
:1011E000FE013396DF011D928A95E9F74B8120E0DD
:1011F00030E060E870E0F901E754FE4F8081882319
:1012000039F0CB01022E02C0959587950A94E2F73A
:10121000482B2F5F3F4F2830310569F74B834C81B6
:1012200020E030E060E870E0F901EF53FE4F80818C
:10123000882339F0CB01022E02C0959587950A9438
:10124000E2F7482B2F5F3F4F2830310569F7409573
:101250004C834D8120E030E060E870E0F901E75315
:10126000FE4F8081882339F0CB01022E02C0959574
:1012700087950A94E2F7482B2F5F3F4F28303105BE
:1012800069F74D834E8120E030E060E870E0F901BD
:10129000EF52FE4F8081882311F080E007C0CB0120
:1012A000022E02C0959587950A94E2F7482B2F5F8E
:1012B0003F4F2830310559F74E834F8120E030E011
:1012C00060E870E0F901E752FE4F8081882339F031
:1012D000CB01022E02C0959587950A94E2F7482B20
:1012E0002F5F3F4F2830310569F740954F83488580
:1012F00020E030E060E870E0F901EF51FE4F8081BE
:10130000882339F0CB01022E02C0959587950A9467
:10131000E2F7482B2F5F3F4F2830310569F74095A2
:101320004887498520E030E0A7E0B0E061E070E068
:10133000FD01E21BF30BE755FE4F8081882339F056
:10134000CB01022E02C0880F991F0A94E2F7482BA6
:101350002F5F3F4F2530310559F720E030E060E244
:1013600070E0F901EE54FE4F8081882339F0CB0103
:10137000022E02C0880F991F0A94E2F7482B2F5FB4
:101380003F4F2330310569F749874A8520E030E037
:1013900061E070E0F901EB54FE4F8081882339F061
:1013A000CB01022E02C0880F991F0A94E2F7482B46
:1013B0002F5F3F4F2430310569F74A8781E48A83E4
:1013C000CE010296112329F061E070E00E94390CF1
:1013D00004C061E070E00E94420B803549F0FE01DC
:1013E0003396ADE5B1E0AF019E01275F3F4FF8C0F6
:1013F000FE013B968CE0DF011D928A95E9F74B8553
:101400005C8520E030E060E870E0F901E754FE4FD1
:101410008081882319F480E090E007C0CB01022E80
:1014200002C0959587950A94E2F7482B592B2F5FB8
:101430003F4F2830310549F75C874B874D855E85E6
:1014400020E030E060E870E0F901EF53FE4F80816A
:10145000882319F480E090E007C0CB01022E02C07F
:10146000959587950A94E2F7482B592B2F5F3F4FAC
:101470002830310549F78FEF90E0482759275E87DC
:101480004D874F85588920E030E060E870E0F90131
:10149000E753FE4F8081882319F480E090E007C075
:1014A000CB01022E02C0959587950A94E2F7482B4E
:1014B000592B2F5F3F4F2830310549F7588B4F8705
:1014C00049895A8920E030E060E870E0F901EF5284
:1014D000FE4F8081882319F080E090E007C0CB01A7
:1014E000022E02C0959587950A94E2F7482B592B56
:1014F0002F5F3F4F2830310549F75A8B498B4B8975
:101500005C8920E030E060E870E0F901E752FE4FCE
:101510008081882319F480E090E007C0CB01022E7F
:1015200002C0959587950A94E2F7482B592B2F5FB7
:101530003F4F2830310549F78FEF90E04827592772
:101540005C8B4B8B6D897E8920E030E040E850E079
:10155000F901EF51FE4F8081882319F480E090E07B
:1015600007C0CA01022E02C0959587950A94E2F73A
:10157000682B792B2F5F3F4F2830310549F74FEF0C
:1015800050E0462757275E8B4D8B20E030E08E01E0
:10159000055F1F4F6FE770E0D901A35ABE4FF801F6
:1015A000E20FF31F80819181FB01E81BF90BED93A2
:1015B000FC932E5F3F4F2830310571F785EF90E0A7
:1015C0002B893C89BC01621B730B7093660160938D
:1015D0006501841B950B9093680180936701FFCE92
:1015E00080819C91890F81931296E217F307C1F7CE
:1015F000A9E6B1E0FA0186E001900D928150E1F791
:1016000080915B0190915C01892B29F08FE7809399
:101610006D0180936E01898580936F018A85809327
:10162000700180E001C081E066960FB6F894DEBFDD
:101630000FBECDBFCF91DF911F910F9108950E94F2
:10164000BC0890E0882309F491E0892F08950E9456
:10165000BC08882399F48091B201882359F08091C5
:10166000B301882339F081E090E090935C0180938E
:101670005B01089510925C0110925B0108953E9801
:1016800046980895EF92FF920F931F93CF93DF93A5
:101690007C01F894662309F456C070E020E030E045
:1016A000E0E0F0E011C088818423FD01E755FE4FA2
:1016B000808311964695A017B107A9F72F5F3F4F7A
:1016C0002617370754F4FD01DF0140E8E701C20F98
:1016D000D31F8F01085F1F4FE6CFE9EAF1E0CF93F8
:1016E000DF93EF93FF930191002311F069F41BC086
:1016F00000003E9A1DE014D03E980000000000005B
:101700000000119781F70FC03E9A12E0000008D048
:101710003E9819E005D000000000119721F703C0A2
:101720001A95F1F7089500000000FF91EF91DF9105
:10173000CF913E9A12E00000F3DF3E980FEF0A953A
:1017400011F0369BFCCFE9EAF1E0EF93FF9311270C
:1017500000270395A1F03699FCCF08C00BE4039550
:1017600072F03699FCCF139551F001930BE4039579
:1017700032F0369BFCCF139511F00193EFCFFF9120
:10178000EF91612F70E06115710511F4789408C034
:1017900010FF05C040E050E020E030E010C0789439
:1017A00020E030E01FC08081F901E855FE4F9081B4
:1017B000E0E0891708F4E1E0EC934F5F5F4FDA0156
:1017C000A755BE4FF901E755FE4F2E5F3F4F41171A
:1017D00050F378948AE18A95F1F79B0121503040CB
:1017E00035952795C901DF91CF911F910F91FF90FA
:1017F000EF900895DF93CF930F92CDB7DEB71982A4
:10180000CE01019661E070E00E94420B009719F44E
:1018100020E030E026C0489711F58091AD01882383
:1018200011F098E001C090E08091AE0181119460C8
:101830008091AF01811192608091B001811191601E
:101840009A3028F4983028F4953049F405C09B303C
:1018500031F422E030E005C021E030E002C024E0B5
:1018600030E0C9010F90CF91DF91089587988F984C
:101870000895EF92FF920F931F93CF93DF937C0114
:10188000F894662309F456C070E020E030E0E0E010
:10189000F0E011C088818423FD01E755FE4F80836D
:1018A00011964695A017B107A9F72F5F3F4F26174E
:1018B000370754F4FD01DF0140E8E701C20FD31FF1
:1018C0008F01085F1F4FE6CFE9EAF1E0CF93DF9386
:1018D000EF93FF930191002311F069F41BC0000006
:1018E000879A1DE014D087980000000000000000D7
:1018F000119781F70FC0879A12E0000008D08798EF
:1019000019E005D000000000119721F703C01A95D7
:10191000F1F7089500000000FF91EF91DF91CF9162
:10192000879A12E00000F3DF87980FEF0A9511F015
:101930007F9BFCCFE9EAF1E0EF93FF9311270027AB
:101940000395A1F07F99FCCF08C00BE4039572F0DA
:101950007F99FCCF139551F001930BE4039532F07E
:101960007F9BFCCF139511F00193EFCFFF91EF9187
:10197000612F70E06115710539F110FF25C040E05D
:1019800050E020E030E00CC08081F901E855FE4FC6
:101990009081E0E0891708F4E1E0EC934F5F5F4F3E
:1019A000DA01A755BE4FF901E755FE4F2E5F3F4FB5
:1019B000411750F378948AE18A95F1F79B01215001
:1019C00030403595279502C020E030E0C901DF9115
:1019D000CF911F910F91FF90EF900895DF93CF93D8
:1019E0000F92CDB7DEB71982CE01019661E070E0AB
:1019F0000E94390C009719F420E030E026C0489787
:101A000011F58091AD01882311F098E001C090E0BC
:101A10008091AE01811194608091AF01811192603B
:101A20008091B001811191609A3028F4983028F4A7
:101A3000953049F405C09B3031F422E030E005C018
:101A400021E030E002C024E030E0C9010F90CF91E6
:101A5000DF9108958CE091E00895EF92FF920F934B
:101A60001F93DF93CF930F92CDB7DEB7082F85E09A
:101A70008093180110E07E010894E11CF11C6EE1D6
:101A800070E080E090E00E94C70E1982002331F4DC
:101A9000C70161E070E00E94420B05C0C70161E030
:101AA00070E00E94390C489711F481E004C01F5F78
:101AB0001F3029F780E00F90CF91DF911F910F9198
:101AC000FF90EF9008951F93DF93CF93CDB7DEB7CC
:101AD000A6970FB6F894DEBF0FBECDBF182F1982A0
:101AE000CE010196112329F461E070E00E94420BBF
:101AF00004C061E070E00E94390C883119F0109246
:101B0000180122C08091C001882331F08091180112
:101B1000853011F4109218018091C001882319F4C6
:101B200085E08093180181E08983CE01019611231D
:101B300029F461E070E00E94420B04C061E070E0B3
:101B40000E94390C803211F08FEFADC019821A82D9
:101B50001B821C8240E020E030E061E070E0F9018F
:101B6000E755FE4F8081882339F0CB01022E02C059
:101B7000880F991F0A94E2F7482B2F5F3F4F2430BC
:101B8000310569F720E030E060E170E0F901EB54E5
:101B9000FE4F8081882339F0CB01022E02C0880FCE
:101BA000991F0A94E2F7482B2F5F3F4F24303105ED
:101BB00069F74B838091B30120E0811121E09C8182
:101BC000922B8091B401811182E0892B8C83498111
:101BD00020E030E060E870E0F901E754FE4F8081DA
:101BE000882339F0CB01022E02C0959587950A947F
:101BF000E2F7482B2F5F3F4F2830310569F74983C3
:101C00004A8120E030E060E870E0F901EF53FE4FD8
:101C10008081882339F0CB01022E02C095958795EB
:101C20000A94E2F7482B2F5F3F4F2830310569F7C0
:101C30004A8389818158809379018FE7982F941B7B
:101C400090937A0180937B0180937C0180937D0146
:101C500080937E018B8180937F019C819093800192
:101C60008091AD01882319F0946090938001809158
:101C7000AE01882329F080918001886080938001E3
:101C80008091AF01882329F0809180018061809349
:101C900080018091B001882331F0809180018062C1
:101CA0008093800180E0A6960FB6F894DEBF0FBE49
:101CB000CDBFCF91DF911F9108950E94630D0895CC
:101CC000009741F0DC01E9E7F1E088E001900D9236
:101CD0008150E1F7A1E8B1E0E9E7F1E088E00190A7
:101CE0000D928150E1F788E090E0089589E791E056
:101CF00061E871E048E050E00E94280208951F92D8
:101D00000F920FB60F9211242F933F938F939F93AF
:101D1000AF93BF9380918D0190918E01A0918F011F
:101D2000B0919001309191010196A11DB11D232F19
:101D30002D5F2D3720F02D570196A11DB11D209349
:101D4000910180938D0190938E01A0938F01B093A8
:101D500090018091890190918A01A0918B01B091AD
:101D60008C010196A11DB11D8093890190938A0178
:101D7000A0938B01B0938C01BF91AF919F918F91F4
:101D80003F912F910F900FBE0F901F9018959B01C0
:101D9000AC017FB7F8948091890190918A01A0915C
:101DA0008B01B0918C0166B5A89B05C06F3F19F0FF
:101DB0000196A11DB11D7FBFBA2FA92F982F88278B
:101DC000860F911DA11DB11D62E0880F991FAA1FEA
:101DD000BB1F6A95D1F7BC012DC0FFB7F894809165
:101DE000890190918A01A0918B01B0918C01E6B597
:101DF000A89B05C0EF3F19F00196A11DB11DFFBFC3
:101E0000BA2FA92F982F88278E0F911DA11DB11DC4
:101E1000E2E0880F991FAA1FBB1FEA95D1F7861B26
:101E2000970B885E9340C8F22150304040405040AC
:101E300068517C4F211531054105510571F6089512
:101E4000789484B5826084BD84B5816084BD85B595
:101E5000826085BD85B5816085BDEEE6F0E080815C
:101E600081608083E1E8F0E010828081826080837D
:101E7000808181608083E0E8F0E080818160808300
:101E8000E1EBF0E0808184608083E0EBF0E0808132
:101E900081608083E1E9F0E08081826080838081DD
:101EA00081608083E0E9F0E0808181608083E1EC03
:101EB000F0E0808184608083808182608083808183
:101EC00081608083E3ECF0E0808181608083E0ECDE
:101ED000F0E0808182608083E2ECF0E080818160CC
:101EE0008083EAE7F0E08081846080838081826083
:101EF0008083808181608083808180688083089571
:101F0000CF93DF93482F50E0CA018C509F4FFC01C4
:101F100034914A525F4FFA018491882369F190E02D
:101F2000880F991FFC01E455FF4FA591B491FC0166
:101F3000E654FF4FC591D491662351F42FB7F8941E
:101F40008C91932F909589238C93888189230BC042
:101F5000623061F42FB7F8948C91932F9095892378
:101F60008C938881832B88832FBF06C09FB7F894FA
:101F70008C91832B8C939FBFDF91CF9108958730F5
:101F8000C1F1883080F48330F9F0843030F481304E
:101F900029F1823009F050C024C08430C9F0863065
:101FA00009F04AC022C08A3091F18B3030F4883079
:101FB00031F1893009F040C026C08C3091F18C306D
:101FC00060F18E30C9F533C0809180008F7703C0F7
:101FD000809180008F7D80938000089584B58F77F5
:101FE00002C084B58F7D84BD08958091B0008F7745
:101FF00003C08091B0008F7D8093B00008958091E0
:1020000090008F7707C0809190008F7D03C08091F2
:102010009000877F8093900008958091C0008F7713
:1020200003C08091C0008F7D8093C000089580918F
:10203000C200877F8093C20008950F931F93482F9B
:1020400050E0CA018E5E9E4FFC012491CA018C5063
:102050009F4FFC0104914A525F4FFA0114911123E2
:1020600019F420E030E015C0222319F0822F0E94DD
:10207000BF0F812F90E0880F991F88539F4FFC015D
:10208000A591B4918C9120E030E0802311F021E003
:1020900030E0C9011F910F910895FC019181808169
:1020A000813A31F4913089F080E0933089F40DC0A9
:1020B000813269F49B3021F482818093190105C03B
:1020C0009A3029F4828180931A0181E0089580E09A
:1020D0000895EF92FF920F931F938C01E62EDC017F
:1020E000ED91FC910480F581E02D0995F82ED80141
:1020F000ED91FC910680F781E02DC8016E2D0995C8
:102100008F2D90E01F910F91FF90EF900895109206
:10211000920110929601109295018FE191E09093B7
:102120009401809393010895EF92FF920F931F9370
:10213000DF93CF930F92CDB7DEB789838B017A01FE
:1021400081E0BE016F5F7F4F41E050E00E94781256
:1021500081E4B801A7010E9478120F90CF91DF911E
:102160001F910F91FF90EF90089582E048E050E0BA
:102170000E9494100895FC01168217821086118621
:102180001286138614823496BF010E94B5100895FA
:10219000DC01683810F0685829C0E62FF0E067FFCE
:1021A00013C0E058F04081E090E002C0880F991F12
:1021B000EA95E2F7809514962C91149728231496AB
:1021C0002C93149760E012C0EF5EFD4F649166237C
:1021D00019F420E030E01DC067FF08C014968C9110
:1021E00014978D7F14968C9314976F77FD0190E070
:1021F000662321F08681861709F416829F5F319647
:102200009630B1F7CD011496BD010E94B51021E0C2
:1022100030E0C9010895CF93DF93DC01683810F0F6
:10222000685825C0E62FF0E067FF12C0E058F04084
:1022300081E090E002C0880F991FEA95E2F71496BA
:102240002C911497282B14962C93149760E00FC0B0
:10225000EF5EFD4F64916623D9F167FF08C01496C5
:102260008C911497826014968C9314976F771696BE
:102270008C9116978617A9F117968C911797861748
:1022800081F118968C911897861759F119968C91AF
:102290001997861731F11A968C911A97861709F1BA
:1022A0001B968C911B978617E1F0ED01E0E0F0E0C2
:1022B0009E2F8E81882321F4EA0FFB1F668306C0C0
:1022C0009F5F31962196E630F10591F7963049F4FB
:1022D00081E090E013969C938E93129720E030E07B
:1022E00007C0CD011496BD010E94B51021E030E079
:1022F000C901DF91CF910895662341F480E86EE231
:1023000071E04BE350E00E94D011089580E862E84C
:1023100071E046E750E00E94D0110895FC018081F1
:10232000662351F48F5F808380E869E671E049E1BC
:1023300050E00E94D01108958F5F808380E868EF9D
:1023400071E049E150E00E94D0110895CF92DF92F0
:10235000EF92FF920F931F93CF93DF937C016B015A
:102360008A01C0E0D0E00FC0D6016D916D01D701A8
:10237000ED91FC910190F081E02DC7010995C80F06
:10238000D91F015010400115110571F7CE01DF91E1
:10239000CF911F910F91FF90EF90DF90CF90089514
:1023A000FF920F931F93F82E142F052F4091A40135
:1023B0005091A501212F302FC901DC01FB016EEFE7
:1023C00029C0F7FE02C0949101C090812091A20122
:1023D0003091A30124173507ACF48091E800857093
:1023E000E1F38091E80082FF03C02FEF3FEF17C0B9
:1023F0009093F100C90101968F739070892B11F4AD
:102400006093E8002F5F3F4F3093A3012093A20118
:10241000119731961097A9F6812F902F9C01C90131
:102420001F910F91FF9008958093A80108951F9226
:102430000F920FB60F9211248F939F938091E1001A
:102440001092E100982F93FF0FC01092E90081E0F5
:102450008093EB001092EC0082E38093ED001092E9
:10246000A10188E08093F00092FF1CC080919F0141
:10247000882351F080919F01815080939F0180912A
:102480009F01882309F45D9A8091A001882351F06F
:102490008091A00181508093A0018091A0018823A8
:1024A00009F4289A9F918F910F900FBE0F901F9063
:1024B000189508951092A10181E08093D70080EAD9
:1024C0008093D80082E189BD09B400FEFDCF61E0B0
:1024D00070E080E090E00E94C70E80E98093D80011
:1024E0008CE08093E2001092E000559A209A0895C3
:1024F0005F926F927F928F929F92AF92BF92CF9294
:10250000DF92EF92FF920F931F93CF93DF93E82E0A
:10251000842E752E8091A101882371F18B01242FC7
:10252000352FC901EC017AEFF72E67E0962E9E2039
:1025300050E4552E8E2D90E040E2A42EB12CA8221E
:10254000B9223AE3632E20E4C22ED12CC822D9222C
:1025500058C09FB7F8949092E9008091E80085FDFB
:1025600002C020E004C08091F200252D281B9FBFEF
:10257000222361F4FA9419F42FEF3FEF4DC061E08C
:1025800070E080E090E00E94C70E3BC0822F90E098
:10259000C817D9070CF42C2FC21BD1094FB7F894D8
:1025A0009092E900A114B10421F406C01092F10048
:1025B00021502223D9F719C0E7FC03C0F801922F5C
:1025C00010C0C801322F06C0FC010196E491E093CF
:1025D000F10031503323C1F706C081918093F1009F
:1025E00091509923D1F7020F111D8091E80085FFCA
:1025F00005C0209729F4C114D10411F06092E800BD
:102600004FBF209709F0A5CF5D9884E680939F0186
:10261000282D372DC9019C01C901DF91CF911F9150
:102620000F91FF90EF90DF90CF90BF90AF909F9071
:102630008F907F906F905F900895DF93CF930F926C
:10264000CDB7DEB7682F1982CE0101960E948E1198
:10265000898190E00F90CF91DF9108951F920F92A2
:102660000FB60F921124EF92FF920F931F932F93A7
:102670003F934F935F936F937F938F939F93AF930A
:10268000BF93EF93FF93DF93CF93CDB7DEB76197FF
:10269000DEBFCDBF1092E9008091E80083FF07C143
:1026A000FE0131969E01275F3F4F03C08091F100EC
:1026B0008193E217F307D1F7289884E68093A0016D
:1026C00082EF8093E800998197FF05C08091E80030
:1026D00080FFFCCF03C08EEF8093E800292F30E00D
:1026E000C90180769070892B09F0C1C08A81882346
:1026F00029F41092F1001092F100CEC0813009F45B
:10270000CBC0833009F4C8C0853049F48091E8001B
:1027100080FFFCCF8B8180688093E300BDC0863052
:1027200009F081C00091A8011C81EF80F88412306B
:10273000D1F51092E9001092A3011092A20110921B
:10274000A5011092A401802F0E941D1399E0FE01A3
:102750003996DF01292F1D922A95E9F799871A8763
:1027600091E09E8790E8988B9AEF998B2091A20137
:102770003091A301275F3F4F3C872B878D871092B5
:10278000E9001092A3011092A201F092A501E0923B
:10279000A40180E0BF0149E050E00E94D011802FE9
:1027A0000E941D1379C01092E9001092A3011092AB
:1027B000A201F092A501E092A401123249F482E252
:1027C00090E0602F0E947C11892B09F469C064C0DD
:1027D000113079F488E0E816F10419F481E080936F
:1027E000A6018091A601882309F05EC0EFECF2E01B
:1027F00013C0133009F054C08B81882319F4E1E928
:10280000F2E00AC0823019F4E5E9F2E005C0813057
:1028100009F046C0E7EBF2E0449180E8BF0150E0E8
:102820000E94D01139C08730D9F1883021F481E07D
:102830008093F10031C0893079F523703070232BFB
:1028400079F581E08093E9008093EB00E4EFF2E01A
:10285000E491E093EC0086E38093ED008EE78093B3
:10286000EA001092EA008B818093A10115C08F814C
:1028700098851092E9001092A3011092A201909302
:10288000A5018093A4018D81882351F4CE01019686
:102890000E944D10882321F08EEF8093E80007C03E
:1028A00081E28093EB0003C0E1EEF2E0B5CF6196E8
:1028B000DEBFCDBFCF91DF91FF91EF91BF91AF917F
:1028C0009F918F917F916F915F914F913F912F9148
:1028D0001F910F91FF90EF900F900FBE0F901F90E0
:1028E00018952F923F924F925F926F927F928F92A4
:1028F0009F92AF92BF92CF92DF92EF92FF920F938F
:102900001F93DF93CF93CDB7DEB73B014C01190185
:102910002A016D897E898F89988D6A197B098C09B6
:102920009D09621A730A840A950AA40193010E9400
:10293000BA14E218F30804091509A80197010E94C6
:10294000FB142A0D3B1D4C1D5D1DB901CA01CF9121
:10295000DF911F910F91FF90EF90DF90CF90BF908C
:10296000AF909F908F907F906F905F904F903F902F
:102970002F900895629FD001739FF001829FE00D18
:10298000F11D649FE00DF11D929FF00D839FF00DEE
:10299000749FF00D659FF00D9927729FB00DE11D9A
:1029A000F91F639FB00DE11DF91FBD01CF01112477
:1029B0000895A1E21A2EAA1BBB1BFD010DC0AA1F80
:1029C000BB1FEE1FFF1FA217B307E407F50720F098
:1029D000A21BB30BE40BF50B661F771F881F991F13
:1029E0001A9469F760957095809590959B01AC015C
:1029F000BD01CF01089597FB092E05260ED057FD86
:102A000004D0D7DF0AD0001C38F45095409530959B
:102A100021953F4F4F4F5F4F0895F6F79095809562
:102A2000709561957F4F8F4F9F4F0895EE0FFF1F59
:0C2A30000590F491E02D0994F894FFCF7C
:102A3C000100270BBC08B3089D081F0B02005D0E9C
:102A4C00630D760E600E2D0D05010100000000696E
:0A2A5C0010A6110B11C810BB1000EA
:00000001FF
